:100000000C94EB020C9408030C9408030C94080362
:100010000C9408030C9408030C9408030C94080334
:100020000C9408030C9408030C94752A0C94492B27
:100030000C9404250C9408030C9408030C940803F6
:100040000C9408030C9408030C9408030C94080304
:100050000C9408030C948B250C9408030C9408034F
:100060000C9408030C9408030C9408030C940803E4
:100070000C9408030C9408030C9408030C940803D4
:100080000C9408030C9408030C9408030C940803C4
:100090000C9408030C9408030C9408030C940803B4
:1000A0000C9408030C9408030C9408035F000803E5
:1000B00028002A00A9005C00060119012900AA00F5
:1000C000590004011D002B00A90059001D011D034A
:1000D0002800AA000100010001000100A9000100A0
:1000E000010001000100AA0001000100010001005F
:1000F000A9000100010001000100AA0001000100A7
:1001000001000100A9000100010001000100AA0096
:100110000100010001000100A9000100010001002F
:100120000100AA000100010001000100A900010076
:10013000010001000100AA0001000100010001000E
:10014000A9000100010001000100AA0000047F3F96
:100150001F643214643214783C1E1E140A052223D4
:10016000252628292A2C2D2F3032333536383A3B94
:100170003D3E4042434547494A4C4E5051535557E6
:10018000595A5C5E6062646668696B6D6F71737505
:1001900077797B7D7F81838587898A8C8E90929405
:1001A00096989A9C9E9FA1A3A5A7A8AAACAEAFB112
:1001B000B3B4B6B8B9BBBCBEBFC1C2C3C5C6C7C95C
:1001C000CACBCCCDCED0D1D2D2D3D4D5D6D7D7D816
:1001D000D9D9DADADBDBDBDCDCDCDCDCDDDDDDDD68
:1001E000DCDCDCDCDCDBDBDBDADAD9D9D8D7D7D670
:1001F000D5D4D3D2D2D1D0CECDCCCBCAC9C7C6C527
:10020000C3C2C1BFBEBCBBB9B8B6B4B3B1AFAEAC6C
:10021000AAA8A7A5A3A19F9E9C9A98969492908E17
:100220008C8A89878583817F7D7B79777573716FF0
:100230006D6B6968666462605E5C5A5957555351CC
:10024000504E4C4A4947454342403E3D3B3A383682
:10025000353332302F2D2C2A292826252322FFAA98
:100260007F5540000101010101010101010202026B
:100270000202020202020303030303030303040452
:10028000040404040405050505050606060606071C
:100290000707070708080808090909090A0A0A0BD5
:1002A0000B0B0C0C0C0D0D0D0E0E0E0F0F0F101076
:1002B00011111112121313141415151616171718FD
:1002C0001819191A1A1B1B1C1D1D1E1E1F20202168
:1002D0002222232424252626272829292A2B2C2DAF
:1002E0002D2E2F30313232333435363738393A3BD0
:1002F0003C3D3E3F404142434445464748494A4CC5
:100300004D4E4F50515354555658595A5B5D5E5F90
:10031000616264656668696B6C6D6F707273757726
:10032000787A7B7D7E8082838587888A8C8E8F9188
:10033000939596989A9C9EA0A2A3A5A7A9ABADAFB2
:10034000B1B3B5B7BABCBEC0C2C4C6C9CBCDCFD19C
:10035000D4D6D8DBDDDFE2E4E7E9EBEEF0F3F5F845
:10036000FAFDFF00000000000000002A2B2800001A
:100370000000000000000000000000000000290054
:100380000000002C1E3420212224342627252E365E
:100390002D3738271E1F20212223242526333336CC
:1003A0002E37381F0405060708090A0B0C0D0E0F1F
:1003B000101112131415161718191A1B1C1D2F31A2
:1003C00030232D350405060708090A0B0C0D0E0F06
:1003D000101112131415161718191A1B1C1D2F3182
:1003E00030354C000000000000000000000000005C
:1003F00000000000000000000000000000000000FD
:10040000000000000000007E0F00D4FFFFFFC700C7
:100410000000780E037A00650061007000610064DE
:10042000000000280370006F007300690074007200
:10043000006F006E005F0065006C00650063007473
:100440000072006F006E0069006300000004030981
:100450000409025B00030100A0320904000001034B
:10046000010100092111010001224000070581035B
:100470000800010904010002030000000921110124
:100480000001222200070582032000010705030363
:1004900020000109040200010300000009211101EC
:1004A000000122B6000705840320000112010002AA
:1004B0000000000855F0333500010102000106601C
:1004C000FF0961A1010962150026FF00952075084A
:1004D00081020963150026FF00952075089102C06E
:1004E00005010902A10185020901A10005091901FF
:1004F00029081500250195087501810205010930BB
:1005000009311581257F9502750881060938158105
:10051000257F950175088106050C0A38021581258D
:100520007F950175088106C0C005010980A101857C
:100530000319012AB700150126B70095017510812E
:1005400000C0050C0901A101850419012AA00215AA
:100550000126A002950175108100C005010906A1C0
:10056000018506050719E029E7150025019508759D
:100570000181020507190029EF1500250195F07585
:10058000018102050819012905950575019102955A
:100590000175039101C005010906A101050719E0D4
:1005A00029E7150025019508750181029501750857
:1005B00081010507190029FF150026FF0095067522
:1005C0000881000508190129059505750191029515
:1005D0000175039101C011241FBECFEFDAE0DEBF29
:1005E000CDBF11E0A0E0B1E0EAE3FDE502C0059077
:1005F0000D92A63FB107D9F723E0A6EFB1E001C005
:100600001D92A932B207E1F70E94AB120C94342E6E
:100610000C940000A5E0B0E0E0E1F3E00C94922D32
:1006200088EFE82E81E0F82E10E000E0F7018191DC
:100630007F018823C9F08695F801F9F0E75DFE4F48
:10064000808191819A8389831B820E9464258160C5
:10065000782F9D838C83F7013197108249815A81CD
:100660006B818D810E94AF040E5F1F4F0430110516
:10067000E9F62596E6E00C94AE2DE35DFE4FE0CF63
:10068000A5E0B0E0E6E4F3E00C94922D162FE82EFE
:10069000F12CC701880F991F662301F1875D9E4FDA
:1006A000FC01808191819A83898301E00B830E9400
:1006B00064258160782F9D838C83F701E850FE4F7D
:1006C0000127110F102B108349815A816B818D8175
:1006D0000E94AF042596E6E00C94AE2D835D9E4FFC
:1006E000DFCF0E940A0308950E94400380E008952E
:1006F00084E008958430B8F46430A8F4453098F468
:1007000050E095E0699F400D511D1124FA0194E1DC
:10071000899FE00DF11D1124EE0FFF1FE455FF4FDF
:1007200085919491089581E090E0089581E0089585
:1007300081E008950E949803089508950E949D0302
:100740000895A5E0B0E0E7EAF3E00C94952D498325
:100750005A833091FF0189819A81311119C0662332
:1007600099F0222389F00E942709182F682F898188
:100770009A810E94030969817A81812F0E94361033
:100780002596E3E00C94B12D0E941509182FF3CFA4
:100790000E94270969817A81F1CFFC01262F4081CF
:1007A00051816281738184810E94A103089581E057
:1007B0000895CF93DF93EC0160E00E94CD03BE016A
:1007C0000E949E03DF91CF91089508950E94F9073A
:1007D0000E94E5032FEF84E39CE02150804090408D
:1007E000E1F700C0000008950E94E6030E94AF25D3
:1007F00008950E94E6030E94C02508950F931F9359
:10080000CF93DF938C0161E00E94CD03EC01B8012E
:100810000E948B1C811106C080E0DF91CF911F9157
:100820000F910895B801CE010E949A038823A1F385
:10083000B801CE010E94DD22882371F3B801CE01F8
:100840000E94FC1D882341F3B801CE010E944F2273
:10085000882311F3B801CE010E94881B8823E1F29E
:10086000B801CE010E9421238823B1F2F8018281D0
:10087000882361F0C330FCE7DF07E9F058F4C115C5
:10088000ECE7DE07A9F0C130DC47B9F0C8010E94EF
:100890009603C3CFCB358CE7D807A9F0CC35ECE76E
:1008A000DE0771F0CA35DC4789F70E947A0DEECF7A
:1008B0000E94F403B1CF0E94820D0E94F903ACCFD5
:1008C0000E94700DE3CF0E947E0DE0CF0E94E124D4
:1008D0000E948D0408950E9491040E94E6240895C8
:1008E000089581E008950895CF93DF93D82F0E9453
:1008F0007104C82F882319F08D2F0E9473048C2F48
:10090000DF91CF9108950895CF93C82F0E9470046E
:100910008C2F0E947404CF91089580E00E9484047B
:1009200008950E9474230E9484040895CF930E9426
:100930007423C82F8091FA018C1779F0C093FA01C3
:100940000E9470256093FB017093FC018093FD0170
:100950009093FE018C2F0E948404CF910895ABE008
:10096000B0E0E5EBF4E00C94962D4F83588769874F
:100970007A878B8761110E94BB0C1E821D8285E0E5
:10098000FE013796DE01119601900D928A95E1F7EE
:100990008C819D81892B61F449815A816B817C8195
:1009A0008D819E810E94E30B2B96E2E00C94B22D88
:1009B00089819A8189238F3F79F3CE0101960E9424
:1009C000D7038111E9CFF0CFFC01808191810E9492
:1009D00054090895662329F00E942F130E940214DF
:1009E00008950E948913FACFCF93C82F8823B9F0B6
:1009F0008CEF8C0F813AA8F46C2F809100019091BC
:100A000001010E940724882329F08C2F0E947B0C6F
:100A10000E94DC0C8C2F0E94730C0E94DC0CCF9186
:100A2000089580E28C0F883048F4C77081E001C0DF
:100A3000880FCA95EAF70E949E0CEFCFEBE5EC0F0A
:100A4000E33040F4F0E0E959FE4F808190E00E94ED
:100A5000A923E5CFE8E5EC0FEB3150F4F0E0EE0F21
:100A6000FF1FEF5CFE4F808191810E94CE23D7CF84
:100A700083E38C0F833198F661E08C2F0E94EA04A7
:100A8000CECF882381F19CEF980F913A28F40E94F1
:100A90007B0C0E94DC0C089590E2980F983050F483
:100AA000877091E001C0990F8A95EAF7892F0E941B
:100AB000A40CEFCF9BE5980F933028F490E080E0F2
:100AC0000E94A923089598E5980F9B3128F490E09F
:100AD00080E00E94CE23089593E3980F933118F499
:100AE00060E00E94EA0408951F93CF93DF93182FCC
:100AF000EB010E94F404209739F4812F0E944105F4
:100B0000DF91CF911F9108958FE99FE00197F1F751
:100B100000C000002197EFCF6AE070E0893311F444
:100B200060E570E00E9474050895882321F00E941A
:100B30009E0C0E94DC0C0895882321F00E94A40CD6
:100B40000E94DC0C0895B0E0A0E0E9EAF5E00C9426
:100B50008F2D6C01D62FC72FFC01128105810295C4
:100B60000F700E94940CE82E8823E9F0E12E1123E7
:100B7000D1F08C2F807F803451F080E28D0F88304F
:100B8000F8F0011104C08C2F807E8032C9F0809172
:100B9000EC0282FF15C082E00E943F0D0E94940C7F
:100BA00091E0E82EE926BC2EB2949FE0B922FBE04A
:100BB000FB15B8F1EB2DF0E0EA5CF14D0C94482DFB
:100BC000E12CF1CF0C2F0F70C07F11F00295007F48
:100BD000112399F0002359F080E28D0F883010F036
:100BE000D11107C0802F0E949E0C0E94DC0C8D2F1B
:100BF00062C0802F0E94AE0CF8CF8D2F0E9441055D
:100C0000002379F080E28D0F883010F0D11104C0FC
:100C1000802F0E94A40C03C0802F0E94B40C0E945D
:100C2000DC0CEB2DE850FF0B349720F40E9474236A
:100C30000E948404EE2089F00E94900C80FD0DC07B
:100C4000F60112820E948A0C0E947708C6010E9457
:100C5000B9070E948A0C0E948308CDB7DEB7E9E08D
:100C60000C94AB2D2C2F2F70F22EC07FC03219F0B8
:100C7000F29480EFF822DD2381F0D13009F449C0ED
:100C8000112309F451C0002309F448C0F6018581FD
:100C900080FFADCF8F70858341C08091EC0282FDD3
:100CA00015C0112359F0FF2029F08F2D0E949E0CB2
:100CB0000E94DC0C80E00E94F404B3CF80E00E942C
:100CC0004105FF2009F4ADCF8F2DA3CF112381F073
:100CD000011106C00E94BE0C8F290E949505A1CF6C
:100CE0000130C1F70E94BE0C8F290E94C50C99CF1C
:100CF000011106C00E94D20C8F2D0E949C0591CF3D
:100D0000013009F48ECF8F2D0E949C050E94D20CD9
:100D100088CF112329F0063008F083CF8F2DDDCF47
:100D2000053008F07ECFE8CF002331F3D93309F046
:100D300000C1FFEF27EE33E0F15020403040E1F7F3
:100D400000C000008D2F0E9441056BCF8C2F86952F
:100D50008695837069F0813009F063CF8D2F9C2FC9
:100D60009370111102C080E090E00E94CE2359CF11
:100D70008D2F9C2F9370111102C080E090E00E9493
:100D8000A9234FCF612F8D2F0E94EA044ACF8C2FC9
:100D9000837079F5111145CF4D2F429546954770D7
:100DA000440F440F8D2F8F70042E01C0880F0A94BA
:100DB000EAF72D2F2071D4FF07C02FE030E001C0EB
:100DC000220F4A95EAF72095C695C695C370822BE7
:100DD000C23049F058F4C13019F00E94530821CFB5
:100DE0000E944D081ECF0E9459081BCF0E944A083E
:100DF00018CF8695112311F08C2F8170882309F468
:100E000010CF4D2F429546954770440F440F8D2FBC
:100E10008F70042E01C0880F0A94EAF72D2F2071DD
:100E2000D4FF07C02FE030E001C0220F4A95EAF757
:100E30002095C695C695C370822BC23049F058F4F0
:100E4000C13019F00E94A208ECCE0E949C08E9CEA5
:100E50000E94A808E6CE0E946508E3CECF70112359
:100E600029F08C2F0E9477088D2F37CF8D2F0E946D
:100E70009C058C2F0E948308D4CED23F41F160F4B0
:100E8000D03FB9F0D13F81F0112309F446C00111E0
:100E9000AECE8C2F8F711FC0D33F01F1D43FA1F78D
:100EA0008091EC0282FD24C08C2F8F71112311F3ED
:100EB00012C0112341F0053008F0B3CE8C2F8F7192
:100EC0000E949008AECE063008F0ABCEF7CF8C2F44
:100ED0008F711111CFCF0E947708A3CE112329F073
:100EE0008C2F8F710E946E089CCE0E946A0899CE4A
:100EF000112349F0CF718C2F0E94770863E08C2F6B
:100F00000E94210D8ECE81E00E943F0D023008F438
:100F100088CE82E00E943F0D84CE002379F0D93341
:100F200041F49FEFE7EEF3E09150E040F040E1F74D
:100F300007CF8FE39CE90197F1F702CF8C2F8F71D8
:100F400099CF0F931F93CF93DF93EC016881798141
:100F50008A810E945F098C010E94AE080E944908A4
:100F6000B801CE010E94A305DF91CF911F910F918F
:100F70000895CF93DF93EC018B819C81892B29F01D
:100F80008881998189238F3F51F4DF91CF91089512
:100F9000CE010E94A107CE010E94D903F6CFCE0157
:100FA0000E94FE038111F4CF0E94940C882369F300
:100FB0008A81882351F38091EC0282FFE6CF82E0A0
:100FC0000E943F0DE2CF90E080E00E94A92390E0D4
:100FD00080E00E94CE230E94BB0C0E94DC0C0E9489
:100FE0001E140E94021408950E94830C0E94E307BD
:100FF00008950E94AB0C0E94F407089592959F708B
:10100000963091F058F4925F9F70923058F4803F80
:1010100019F030F4883E30F481E008959A5FF4CFFF
:10102000843FD1F380E00895883EB0F3813FD1F74B
:10103000F3CFFC0183819481892B29F080819181F8
:1010400089238F3F11F480E00895808191810E946F
:1010500054090E94FE070895A5E0B0E0E2E3F8E03D
:101060000C94962D2596E2E00C94B22DA6E0B0E00B
:10107000ECE3F8E00C94962D2696E2E00C94B22D69
:1010800008950E94400808950E94410880930A0232
:10109000089508950E944408089590910A02892BAA
:1010A0000E944408089590910A0289230E944408EE
:1010B000089590910A0289270E94440808950E9489
:1010C000400808950E945F0808950E946208809376
:1010D0000902089580E00E946508089591E001C02A
:1010E000990F8A95EAF7892F0E946508089521E0F3
:1010F00030E001C0220F8A95EAF780910902822B25
:101100000E946508089521E030E001C0220F8A9511
:10111000EAF720958091090282230E9465080895CC
:1011200021E030E001C0220F8A95EAF780910902A0
:1011300082270E946508089590910902892B0E94D8
:10114000650808959091090289230E946508089511
:101150009091090289270E94650808950895262F15
:10116000277091E001C0990F2A95EAF723E0769560
:1011700067952A95E1F7FB01EE0FFF1FE60FF71FBA
:10118000E40FF51F50E040E0682F70E08191DF012F
:1011900011979B01042E02C0369527950A94E2F719
:1011A000217021952827292328272C934F5F5F4FF3
:1011B0004330510559F70895A82FA77023E096955D
:1011C00087952A95E1F7FC01EE0FFF1FE80FF91F45
:1011D000E60FF71F50E040E080E0219130E00A2E5A
:1011E00002C0369527950A94E2F721703327042E22
:1011F00001C0220F0A94EAF7822B4F5F5F4F433002
:10120000510559F70895262F943070F4853060F415
:10121000682F70E085E0989F600D711D112440E0FB
:1012200052E0822F0E94AF080895292F943068F46D
:10123000853058F490E060E072E035E0239F800D47
:10124000911D11240E94DC08089580E00895CF923A
:10125000DF92FF920F931F93CF93DF936C01009166
:10126000090280910A02082BC3E0D0E010E0FC2EB6
:10127000C8010C2E02C0959587950A94E2F780FD6F
:101280000CC02197A0F7F12C8F2DDF91CF911F91EA
:101290000F91FF90DF90CF900895B6018C2F0E94A0
:1012A0004210019771F3F0CFCF93DF93EC010E94CE
:1012B0002709BE010E944210DF91CF9108951F932C
:1012C000CF93DF93EB019091FF01992339F0CB018C
:1012D0000E945409DF91CF911F910895882369F0EE
:1012E000CB010E942709182F682FCE010E94030905
:1012F000BE01812F0E944210EDCFCB010E94150943
:10130000182FF6CFE1E0F0E0DF0102C0AA0FBB1F0B
:101310006A95E2F7BD01DF0102C0AA0FBB1F4A9523
:10132000E2F76A2B01C0EE0F2A95EAF7962F982371
:10133000961302C08E2B0895E0958E230895242FD6
:10134000462F682F809109020E9482090E94650839
:1013500008951F93CF93DF93C0910B0216E0809105
:101360000C028C1304C0DF91CF911F910895D0E03F
:101370001C9FF0011D9FF00D1124E35FFD4F408184
:10138000518162817381848195810E943608219602
:10139000C770E5CF40913D0250913E0260913F02FF
:1013A0007091400280914102909142020E94360861
:1013B000089520910B0290910C0256E0291302C06F
:1013C00080E0089530E0529FF001539FF00D11240A
:1013D000E35FFD4F7181761306C07081781303C0FF
:1013E0007281741304C02F5F3F4F2770E7CF81E0F5
:1013F00008951F93CF93DF9380914202807F09F07D
:101400004BC080913F02882309F446C080910B02B3
:10141000C0910C0240913D0250913E026091400209
:1014200070914102D42FD52316E0C817A9F190E09E
:1014300061157105A9F1DF3F99F1189FF001199F1E
:10144000F00D1124DF01A35FBD4F11962C91119770
:10145000251326C02C91241323C012962C91129789
:1014600021111EC013962D913C91261B370B283C51
:101470003105B0F4809142028F7080618093420206
:10148000EE5EFD4F80818F70806180838DE392E0FE
:101490000E94B9070E94A909DF91CF911F91089579
:1014A00001968770C2CFA1E1B0E0E9E5FAE00C94C3
:1014B0008C2D8C0185E0F801DE011D9601900D92C6
:1014C0008A95E1F7F801F2808DE3A82E82E0B82E2C
:1014D00040914002509141024115510509F45AC111
:1014E00090913D0220913E02892F82238F3F09F483
:1014F00051C1C080D18083809480E0903F02B401CC
:10150000641B750BEE2009F4F6C080914202382F5F
:10151000307F683C710508F0AFC031117AC0EF2C04
:101520002D1116C09C1114C0F11012C08F70806173
:10153000809342020E94CA09C5010E94B9078091A6
:101540004202F80185838E2D6196ECE00C94A82D63
:1015500081149104C9F18C2D8D218F3FA9F181E077
:101560008F2580FF05C04F2D6D2D8C2D0E94D90930
:101570008114910459F18C2D8D218F3F39F181E037
:101580008F25F82FF170BF2E80FF39C04F2D6D2DA4
:101590008C2D0E94D909A82E811131C0CD86DE86FE
:1015A0008D859E850E945409292F22952F70243005
:1015B00078F49F702230A8F09923B9F0F801958152
:1015C000907F99F4EA2CBFCF80E0CBCF80E0D9CFD9
:1015D0002A5F2F70223068F0C8010E94B907AB2C37
:1015E000F1CF992311F0882369F3805E883050F39E
:1015F000F3CF803F38F3815F833070F7E3CFFF2074
:1016000009F4A1CF80914202816080934202E12CD3
:101610009ACF2D1105C09C1103C0FF2009F486C08C
:10162000C8010E941908882319F1FF2009F180914F
:101630004202803270F020913D0230913E023887A4
:101640002F8319869B868A868C87CE0107960E94F7
:10165000B90786E0F801ADE3B2E001900D928A95FA
:10166000E1F70E94F9090E94CA09EE24E3946BCFC6
:10167000C8010E94B907F9CF311114C0782D998A99
:10168000888AA6016F2D89890E942C088DE392E03B
:101690000E94B90786E0F50111928A95E9F70E9448
:1016A000CA09B5CF2D110EC09C110CC0F1100AC093
:1016B0008583C8010E94B90786E0F50111928A95D9
:1016C000E9F741CFC8010E941908882389F2FF2059
:1016D00079F280914202803208F4BBCF20913D0222
:1016E00030913E023A8329831B829D828C828E83B5
:1016F000CE010196ACCF683C710508F03DC0EF2CDF
:10170000FF2009F4B5CF2D1129C09C1127C080916D
:10171000420280FD1AC0982F907FB9F08583903FD8
:1017200031F0982F907F905F8F70892B8583C8014F
:101730000E94B90786E0F801ADE3B2E001900D9296
:101740008A95E1F70E94CA09FECE86E0F801ADE372
:10175000B2E001900D928A95E1F7F5CEC8010E94A2
:101760001908811176CF80914202816080934202F4
:10177000C8010E94B907E7CE782D998A888AA60108
:101780006F2D89890E942C0886E0F50111928A95B7
:10179000E9F7D8CFFF2009F46BCFC8010E941908E0
:1017A000E82E882309F464CF86E0F801ADE3B2E0C7
:1017B00001900D928A95E1F78DE392E00E94E40496
:1017C0000E94F909BFCFACE0B0E0E9EEFBE00C9479
:1017D000952D4F83588769877A878B879C87CE01A1
:1017E00007960E94530A8823B1F08A859B85892B2E
:1017F00039F04F815885842F85238F3F09F06CC0C5
:1018000016E080910B0290910C02891343C02C9634
:10181000E3E00C94B12D86E0FE013796DE011196CF
:1018200001900D928A95E1F78A859B85892B41F37A
:101830008F81988589238F3F19F320910C0230E026
:10184000C90101968770992740910B024817190624
:1018500071F40E94F90710920C0210920B0286E0BC
:10186000EDE3F2E0DF011D928A95E9F7C9CF96E03A
:10187000929FD001939FB00D1124A35FBD4FFE0135
:10188000319601900D929A95E1F780930C020E9497
:10189000A909B6CF819FC0011124835F9D4F0E948B
:1018A000530A882309F4B3CFE0910B021E9FF00185
:1018B0001124E35FFD4F40815181628173818481F6
:1018C00095810E94360880910B0290E00196877006
:1018D000992780930B0295CF69857A858B859C85A6
:1018E0000E9436088DCF682F8091000190910101F0
:1018F0000E9487240895682F809100019091010132
:101900000E949524089580910001909101010E9408
:10191000A324089580916302859585958595089502
:10192000809163028770089590916302977081E0BF
:1019300009F480E0089580918602089590918602CE
:10194000892B809386020895809590918602982332
:1019500090938602089510928602089590918502D0
:10196000892B809385020895809590918502982314
:1019700090938502089510928502089580916402E3
:10198000089508950E94C10C08959091EC0292FF71
:1019900008C090916402981721F0809364020E941D
:1019A000C20C089580916402882329F01092640289
:1019B00080E00E94C20C0895CF93DF93E091000174
:1019C000F0910101809186028083E0910001F09105
:1019D0000101808190918502892B8083909164021E
:1019E000992381F0E0910001F09101018081892B20
:1019F000808380910001909101010E94F323811165
:101A00000E94D20CC0910001D091010140E250E04F
:101A100063E472E0CE010E94D62D892B59F080E25A
:101A2000FE01A3E4B2E001900D928A95E1F7CE01A8
:101A30000E948123DF91CF91089508950E941D0D8A
:101A400008959091EC0292FF11C098E0899F900157
:101A50001124622B609363020E94770880916302D5
:101A60008595859585950E941E0D08950E9477089D
:101A700008951092630280E00E941E0D08959091D7
:101A800063028095892380936302282F277091F445
:101A9000282F082E000C330B9217130659F0909143
:101AA000EC0292FF07C08595859585950E94830875
:101AB0000E94390D08959091EC0292FB222720F9A3
:101AC000281769F080FB92F99093EC028091EB0269
:101AD0009091EC020E94A40D82E00E943F0D0895B7
:101AE0008091EC0282FB882780F991E089270E948F
:101AF0005B0D089581E00E945B0D089580E00E94D7
:101B00005B0D08956FEF7FEF90E080E00E941E2E46
:101B1000089590E080E00E94FA2D873E9E4F19F4D0
:101B20000E94231C089580E0089582E090E00E94C6
:101B3000EC2D089583E090E00E94EC2D089584E060
:101B400090E00E94FA2D0895BC0184E090E00E948C
:101B50001E2E0895AB01BC018FE090E00E94122E72
:101B60000895AB01BC0183E190E00E94122E08951C
:101B700060E070E0CB010E94B10D089560E070E07C
:101B8000CB010E94AA0D0E94B80D089567EE7EEF6A
:101B900090E080E00E941E2E60E082E090E00E94D3
:101BA000002E60E083E090E00E94002E10920A0276
:101BB00060E074E184E090E00E941E2E60E086E028
:101BC00090E00E94002E6FEF87E090E00E94002ED0
:101BD00040E050E0BA0188E090E00E94122E60E000
:101BE0008DE090E00E94002E40E050E0BA0188E1D4
:101BF00090E00E94122E60E087E190E00E94002EAB
:101C000040E050E0BA018CE190E00E94122E70E0BA
:101C100060E080E290E00E941E2E40E050E0BA01B9
:101C200088E190E00E94122E80E00E943C1C0E94FD
:101C30006B1C0E94BE0D08950E94C60D0895682F6A
:101C40008EE090E00E94002E0895A5E0B0E0EBE267
:101C5000FEE00C94942D0E9464258C0180918702F3
:101C60009091880280179107A1F08FEF89838A8372
:101C70001B820E9464258160782F9D838C8349811B
:101C80005A816B818D810E94AF041093880200936A
:101C900087022596E4E00C94B02D0E947025609395
:101CA00095027093960280939702909398026093A6
:101CB00091027093920280939302909394020895FC
:101CC0000E9470256093950270939602809397020C
:101CD0009093980260938D0270938E0280938F028E
:101CE000909390020895089508950E94740E0895A7
:101CF00008950E94780E089581E008958CE291E1A4
:101D00000E946A230E94730E0E94750E08950E941D
:101D10007C0E08950E94870E0895089508950E94EC
:101D20008D0E0E948E0E08950E9448110E94830419
:101D300008950E945B250E947B1C0E94A51F0E94A3
:101D40000C120E94940E0E94991A0E94790E089516
:101D5000A5E0B0E0EEEAFEE00C948E2D0E947C0E31
:101D6000811111C00E94250E0E94DF1A0E941620C8
:101D700081110E94600E0E9440140E9496042596D4
:101D8000EAE00C94AA2D0E94221289E8A82E82E093
:101D9000B82E750110E0F70101917F01812F0E949B
:101DA0006A111F5F143009F440C00817A1F3809135
:101DB000990281FD0E9470110E948A0EC82E10E0C7
:101DC000812F0E946A11082FF50181915F01081788
:101DD00031F1D02ED826F12CEE24E3948D2D8E21D6
:101DE000B1F0CC20A1F0F9821A8391E0802F8E21EE
:101DF00009F490E09B830E9464258160782F9D8385
:101E00008C8349815A816B818D810E94AF04F39448
:101E1000EE0CF5E0FF12E2CFF501319700831F5F72
:101E2000143071F60E944D0E9FCF0813C0CF9ACF89
:101E30001F93CF93DF930E944710EC01C11580E5FB
:101E4000D807F0F5C11580E4D80708F09CC0C03E63
:101E5000D10520F5CD3CD10508F082C0C83AD105A6
:101E600078F4C53AD10508F073C0C130D10519F135
:101E7000209709F1C430D105F0F4D0E0C0E01BC0D8
:101E8000C33CD105D0F7C85AD0E0CC0FDD1FC659EE
:101E9000DE4F0990D881C02DD4640DC0C11580E2F9
:101EA000D80708F0D1C0C11581E0D80708F05AC0A2
:101EB000C83ED10510F7CE01DF91CF911F91089553
:101EC000C03682E5D80718F5C03482E5D80708F097
:101ED0006BC0C03282E5D80708F05FC0C11582E54B
:101EE000D80708F497C02C2F2695269580E2289FC6
:101EF000900111248C2F8370C1E0D0E002C0CC0F80
:101F0000DD1F8A95E2F7C22BD32BDD68D4CFC03A10
:101F100082E5D80760F4C03882E5D80708F459C0D4
:101F2000CF71D0E0DC2FCC27C46FD06AC4CFC03CC7
:101F300082E5D80708F462C0C03E82E5D80708F001
:101F40009CCFDC2FCC27CC27DF71C06FD06AB3CFFA
:101F5000C55AD0E0C056DE4FC881D0E0D064ABCFC8
:101F6000D065A9CF8D2F0E94E910182FCE01992797
:101F70000E944710C12FD0E0DC2FCC27CC27DF7187
:101F8000C82BD92B98CFCE0199270E944710CC2778
:101F9000DF70C82BD92BD06A8ECFCF71D0E0DC2F69
:101FA000CC27C16FD06A87CF2C2F26952695277016
:101FB00080E2289F900111248C2F8370C1E0D0E033
:101FC00002C0CC0FDD1F8A95E2F7C22BD32BDC6851
:101FD00072CF2C2F26952695277080E2289F90019E
:101FE00011248C2F8370C1E0D0E002C0CC0FDD1F24
:101FF0008A95E2F7C22BD32BDA685DCF8C2F8F71D5
:102000000E94E910C82FD0E0DC2FCC27CC27DF714D
:10201000D06251CF8C2F8F710E94E91055E0D69578
:10202000C7955A95E1F7CF70D0E0DC2FCC27282F49
:1020300030E084FF05C044E0220F331F4A95E1F7EA
:10204000C22BD32BD06937CF8D2F8F710E94E9100F
:10205000182FCE0199270E944710C12FD0E0DC2F06
:10206000CC27CC27DF71C82BD92BD2CF462F743089
:1020700030F4653020F4672F0E946721089590E0C6
:1020800080E008950E9436100E94180F089582384B
:102090009105B9F1B0F48133910509F47DC048F49C
:1020A0008932910509F46DC08A32910509F47BC02B
:1020B00008958533910509F45FC08933910509F1CD
:1020C0000895833E9105D9F138F4803E910529F1B8
:1020D000823E910579F10895863E9105D9F1873EBA
:1020E000910509F43EC0843E910541F52091EC0232
:1020F00021FF24C08091EB0284FD19C087EE90E09F
:1021000008952091EB02237009F05AC02091EC024F
:1021100023FF14C089E290E008952091EB0220FD96
:1021200038C03091EC0230FF09C024FF43C090E07A
:1021300080E008952091EB0222FDF7CF08952091D1
:10214000EB0222FD3AC03091EC0230FD39C024FF91
:10215000F5CFEDCF2091EB0223FFF0CF24FDE7CFA9
:10216000CDCF2091EB0223FD2EC03091EC0231FF48
:10217000EECF84EE90E008952091EB0225FFDECFB4
:10218000C9CF2091EB0225FD21C02091EC0223FF55
:10219000D5CF89E390E0D2CF2091EB0226FFCECFBE
:1021A0008AE290E008952091EB0226FFC7CF81E3F9
:1021B00090E0089583EE90E0089582EE90E0089517
:1021C00080EE90E0089586EE90E0089585E390E03B
:1021D00008959091EB0292FF06C0282F28712830B5
:1021E000F9F4877F846093FF06C0282F2871283177
:1021F000F1F4877E84612091EC0220FF06C0382F25
:1022000038713830D9F4877F816021FF06C0282FCC
:1022100028712831D1F4877E816194FD877E0895ED
:10222000282F24712430F9F68B7F8860DCCF282F8B
:102230002471243101F78B7E8861DDCF382F317115
:10224000313019F78E7F8860E0CF282F217121313E
:1022500021F78E7E8861E1CF80E008950E94820D93
:1022600008950E9422128FE39CE90197F1F700C0C4
:1022700000000E94221280E00E946A1180FF04C0C8
:102280000E942E110E94AF2508950E9431110895D9
:102290000E94890D811102C00E941C0E0E94950DA2
:1022A000809399020E949F0D9093EC028093EB0221
:1022B0000E9445110E949A0D0E944A0880910902CD
:1022C0000E946208089508950E94631108950E9473
:1022D00071030895E82FF0E0EF50FD4F80810895DD
:1022E000089580EA8A95F1F7089500C008950E9444
:1022F00071110895F894E82FE295EF70F0E031A1A4
:10230000282F2F7081E090E001C0880F2A95EAF70E
:10231000982F9095932391A392A1892B82A37894CF
:102320000895CF93DF9381E90E947A1186E60E9497
:102330007A1184E90E947A1180E90E947A11C3EA35
:10234000D1E089918F3F11F00E947A1181E0C83A63
:10235000D807B9F7DF91CF910895B0E0A0E0E3EBA3
:10236000F1E10C94902DEC01D62E062F10E0C8015F
:1023700088559E4F7C01FC0180818F3F09F445C048
:10238000F894E82FE295EF70F0E091A18F7021E0D2
:1023900030E001C0220F8A95EAF7892F822B81A3B2
:1023A00082A12095282322A378940E947511E3EA44
:1023B000F1E048EA51E031E0C12C21912F3F51F189
:1023C000A22FA295AF70B0E090968C9190E02F7004
:1023D00002C0959587952A95E2F780FD1BC0832F53
:1023E000C82A330F4E175F0741F7F70180818F3FEF
:1023F00011F00E947A1161E0C11001C060E08D2DE2
:102400000E947711C00FD11FC882CDB7DEB7E8E0B8
:102410000C94AC2D80E0E4CF0E94911184E0E1EFB8
:10242000F2E0DF01982F1D929A95E9F7EDEEF2E0C8
:10243000DF011D928A95E9F784E00E945F120E94F5
:1024400064110895A4E0B0E0E8E2F2E10C94952D67
:1024500019821A821B821C8210E0612FCE01019624
:102460000E94AD111F5F1430C1F744E050E0BE017F
:102470006F5F7F4F8DEE92E00E94D62D21E0009796
:1024800009F420E0892B61F089819A81AB81BC81BC
:102490008093ED029093EE02A093EF02B093F002CE
:1024A00044E061EF72E08DEE92E00E946012182F1E
:1024B0000E946711812F2496E3E00C94B12D0895BA
:1024C000CF92DF92EF92FF920F931F93CF936C0105
:1024D0007B01042F222349F081E080939C020E941B
:1024E000642590939B0280939A02C0919C02C11133
:1024F0000AC0C0E08C2FCF911F910F91FF90EF90F9
:10250000DF90CF90089580919A0290919B020E9453
:102510007C25059770F310E0A801B601C7010E9461
:10252000D62D892B41F0A801B601C7010E94E32DE9
:1025300010929C02DFCFC0E0FBCF0E944A270E948E
:10254000990E0E94572708950E945C270E94A80EAA
:102550000E94762708950E94FD240E9430270E9441
:102560007E0E0E949D120E94A4120E948F0EFBCF2D
:102570008091A30280FF0DC06091070170E0660F9B
:10258000771F6038710570F56115710569F1862F47
:10259000089581FF07C06091070184E0689FB00142
:1025A0001124EFCF6091070182FD0AC08091A20241
:1025B0008823A9F02091060160910701821710F08D
:1025C00088E0ECCF869FC001112433E0880F991F6B
:1025D0003A95E1F7622F70E00E94122DD2CF68E0A9
:1025E00070E0D5CF8FE7089581E008958091A30230
:1025F00080FF0CC06091030170E07595679575953B
:1026000067956115710549F1862F089581FF06C010
:102610006091030170E075956795F3CF60910301B8
:1026200082FD0BC09091A1029923A1F0609102015B
:1026300080910301961738F0682F70E060387105BB
:1026400000F38FE70895899FC001112470E00E9474
:10265000122DF4CF61E070E0D7CF81E008958D3C7A
:1026600031F40E94B81281958093A70208958E3CA0
:1026700019F40E94B812F8CF8F3C31F40E94B812BE
:1026800081958093A6020895803D19F40E94B812A6
:10269000F8CF893D29F40E94F6128093A80208958C
:1026A0008A3D21F40E94F6128195F7CF8B3D31F4DB
:1026B0000E94F61281958093A90208958C3D19F429
:1026C0000E94F612F8CF9FE2980F983070F4815D67
:1026D000990B21E030E001C0220F8A95EAF7809142
:1026E000A502822B8093A50208958D3D31F480913F
:1026F000A30281608093A30208958E3D21F480910E
:10270000A3028260F7CF8F3DB9F78091A302846066
:10271000F1CF4091A6028D3C59F48091A70287FF2A
:102720000DC01092A70241110BC01092A20208C066
:102730008E3C81F48091A70218169CF3442381F00B
:102740008091A8029091A902892B09F05AC0109299
:10275000A10208958F3C49F447FFF0CF1092A602E2
:102760008091A7028111ECCFE0CF803D19F41416BF
:10277000ACF3E4CF9091A802893D29F41916F4F640
:102780001092A802DBCF8A3D19F497FFD7CFF8CF7C
:102790009091A9028B3D29F497FFD0CF1092A90206
:1027A000CDCF8C3D19F41916CCF3C8CF9FE2980F0A
:1027B000983090F4815D990B21E030E0B90102C0BE
:1027C000660F771F8A95E2F7CB0180959091A5025D
:1027D00089238093A502B2CF8D3D31F48091A3026D
:1027E0008E7F8093A302AACF8E3D21F48091A30215
:1027F0008D7FF7CF8F3D09F0A1CF8091A3028B7F12
:10280000F0CF08950E9464259C019091A6028091CA
:10281000A702982B21F03093A00220939F02909161
:10282000A8028091A902982B21F030939E02209358
:102830009D0284EA92E00E949B23089586E0E4EAE8
:10284000F2E0DF011D928A95E9F71092A202109240
:10285000A1021092A3020895FC01828181110EC091
:10286000838181110BC08481811108C091E0858131
:10287000811101C090E0892F8170089581E0FCCF23
:10288000A6E0B0E0E6E4F4E10C94952D86E0E4EAFD
:10289000F2E0DE01119601900D928A95E1F7109217
:1028A000A6021092A7021092A8021092A9028B8190
:1028B0009C81892B89F080919F029091A0020E94B7
:1028C0007C25AC019091A2029923C9F18091080165
:1028D0008417150608F440C08D819E81892B91F0E4
:1028E00080919D0290919E020E947C25AC01909166
:1028F000A102992309F471C080910401841715067F
:1029000008F479C0BE016F5F7F4F84EA92E00E94B5
:10291000B524811105C084EA92E00E942C14811133
:102920000E94021486E0FE013196A4EAB2E0019012
:102930000D928A95E1F72696E3E00C94B12D209153
:1029400009018AE0289F900111242417350720F6F9
:102950009F5F9093A20202C09F3FD1F71B8111237A
:1029600059F00E94B8129FEF11160CF491E0899F64
:10297000802D11248093A6021C81112359F00E94FE
:10298000B8129FEF11160CF491E0899F802D11244D
:102990008093A7023091A602332309F49DCF2091A2
:1029A000A702222309F498CF45EB3403C001112478
:1029B000992359F09093A60245EB2403900111242A
:1029C000332339F03093A70287CF81E08093A602AA
:1029D000F3CF81E08093A7027FCF209105018AE0A9
:1029E000289F900111242417350708F08BCF9F5F93
:1029F0009093A10202C09F3FD1F71D81112359F08E
:102A00000E94F6129FEF11160CF491E0899F802D21
:102A100011248093A8021E81112359F00E94F612FE
:102A20009FEF11160CF491E0899F802D1124809363
:102A3000A9023091A802332309F464CF2091A9029E
:102A4000222309F45FCF45EB3403C00111249923FD
:102A500059F09093A80245EB2403900111243323ED
:102A600039F03093A9024ECF81E08093A802F3CFD2
:102A700081E08093A90246CFEF92FF920F931F93BC
:102A8000CF93DF93EB01E82FD1110EC0442321F047
:102A9000F0E0ED59FD4FE4916E2F7E2F8E2FCDB7D4
:102AA000DEB7E6E00C94AE2D0D2F10E0282F30E0BD
:102AB000442329F02D593D4FF901249130E0F6E0EF
:102AC000CF9FC0011124EFEFF0E0BF010E94FE2C68
:102AD000AB018C2F90E0880F991FA5E5A49FB00152
:102AE000A59F700D1124861B970B982F990F980F97
:102AF000BF01601B710B629FD001639FB00D729F7D
:102B0000B00D11248B2F9D9FB0011124672F7727C3
:102B1000EF01C61BD70BBE01629FE001639FD00D82
:102B2000729FD00D11247F01E91AF108E09EB001D7
:102B3000E19E700DF09E700D1124672F7727E61B24
:102B4000F70BE29F8001E39F100DF29F100D1124FF
:102B5000E12F722F4230510599F048F4411551058B
:102B600069F04130510581F0EB2F8D2F07C04430C3
:102B7000510569F080F046305105B1F76E2F8FCFC7
:102B8000E22F7B2F812FFACFE22F7D2FF7CFEB2F74
:102B9000822F712FF3CF7B2F822FED2FEFCF41E0CC
:102BA0000E943C15089508950E94CF150895CF9373
:102BB000DF93762FE901682F842F0E94D415798343
:102BC00068838A83DF91CF9108958091F502982FD1
:102BD0009E7F29F4817082608093F50208958A3483
:102BE000E8F381708864F8CF88E090E00E94F42DCB
:102BF0000895CF92DF92EF92FF926B017C010E94C9
:102C0000E515B701A60188E090E00E94122EFF9022
:102C1000EF90DF90CF9008956091F5027091F602E9
:102C20008091F7029091F8020E94F9150895E5EF5E
:102C3000F2E087E1808311828FEF828383831482A5
:102C400060817181828193810E94F915089580913C
:102C5000F50280FF02C08695089580E00895809176
:102C6000F502817008959091F902933018F49F5FF6
:102C70009093F902882351F06091F5027091F60269
:102C80008091F7029091F8020E94F915089581E071
:102C90000E94331608959091F902992319F09150EA
:102CA0009093F902882351F06091F5027091F60239
:102CB0008091F7029091F8020E94F915089581E041
:102CC0000E944B1608958091F90208958093F902AD
:102CD000662351F06091F5027091F6028091F7023F
:102CE0009091F8020E94F915089560E00E9466161E
:102CF00008958091F60208958091F70208958091D9
:102D0000F802089570E00E94F71B089560910E018B
:102D10008091F50280FF0BC080910D0123E0829F1E
:102D2000C001112486509D4F0E9482160895809103
:102D30000F019091100123E0829FF0011124E650D1
:102D4000FD4F891748F71182108212828F5F3396E8
:102D5000F8CF9091F50290FF0EC090910F01209155
:102D6000100133E0939FF0011124E650FD4F9217BC
:102D700018F00E94861608958183608342839F5FC6
:102D80003396F5CFA3E0B0E0E8ECF6E10C94962D95
:102D90009091F50290FF0AC09E012F5F3F4F0E9465
:102DA000D7154B8169818A810E94A9162396E2E09A
:102DB0000C94B22DCF93DF93EC01EC81F0E0E25A5A
:102DC000FE4F4491E5EFF2E0628181810E94C216DC
:102DD0008C818F5F8C83DF91CF910895CF93DF93A8
:102DE000EC01E5EFF2E0438162818C810E94C21622
:102DF0008C818F5F8C83DF91CF910895A3E0B0E049
:102E0000E4E0F7E10C94942D8C018091AA028111E9
:102E10000AC09E012F5F3F4F4FEF6FEF0E94D71503
:102E20008A818093AA02F8016481613069F08091FF
:102E3000AA0240E0662361F040E0623011F4409164
:102E4000AA0280E060E004C06091AA0240E080E055
:102E50000E94A916F801848190E0019663E070E079
:102E60000E94122D84832396E4E00C94B02DA3E0FD
:102E7000B0E0EDE3F7E10C948F2D082FD62EE42E71
:102E8000C22E9091F50290FF29C0E92FE695AE2F52
:102E9000B0E0A455BE4F8C918093B4029E7F9230D7
:102EA00009F59E012F5F3F4F802F0E94D7154B8160
:102EB00069818A810E94A9160093F602D092F702D6
:102EC000E092F802CC2051F06091F5027091F60288
:102ED0008091F7029091F8020E94F9152396E9E09B
:102EE0000C94AB2D823019F4E090F802E5CF8630D7
:102EF00019F40091F602E0CF8930D9F38931E1F677
:102F0000E9516E2F6170B62EE695F0E0E25AFD4F62
:102F10001491F12C60911101F61618F00E9486169A
:102F2000CBCFF19EC001112470E00E94FE2C802FB7
:102F3000B11014C0860F20910F01622F6F0D7727FB
:102F4000771F9B01220F331F260F371F26503D4F3F
:102F50004E2D6D2D0E94D715F394DCCF861BEBCF41
:102F6000E5EFF2E09181282F4381628188E0890FAB
:102F70000E943717089581E00E94B0170895E5EF89
:102F8000F2E09181282F4381628188EF890F0E94AE
:102F90003717089581E00E94BF170895E5EFF2E02A
:102FA000628121E1620F08F46FEF282F4381818154
:102FB0000E943717089581E00E94CE170895E5EF2B
:102FC000F2E0628121E1621B08F460E0282F438176
:102FD00081810E943717089581E00E94DF170895CC
:102FE000E5EFF2E0438121E1420F08F44FEF282F93
:102FF000628181810E943717089581E00E94F01755
:103000000895E5EFF2E0438121E1421B08F440E03E
:10301000282F628181810E943717089581E00E94E4
:103020000118089520E00E9437170895EF92FF924B
:103030001F93CF93DF93EC0110E0EE24EA94F12C80
:1030400060911101161770F00E9486169A818C818A
:1030500090FF27C08F5F8C83DF91CF911F91FF90EE
:10306000EF90089520910F01422F410F5527551FD2
:10307000CA019A01220F331F280F391F26503D4FD6
:1030800070E0C7010E94122D962F8C814091F802AA
:103090006091F702199F800D11240E94D7151F5FC0
:1030A000CFCF8150D8CFB0E0A0E0E9E5F8E10C94B3
:1030B0008E2DFC0182810FEF80FF01E010E04AE0DD
:1030C000A42E80911101181798F00E948616809105
:1030D000AC02013009F04FC0811102C08091110192
:1030E00081508093AC02CDB7DEB7EAE00C94AA2DF4
:1030F000C0910F01C12ED12CCC0DDD2DD11DCE01E3
:10310000880F991FC80FD91FC650DD4F198218822A
:103110001A8234E0E32EF12CB12C8091AC028B0D9D
:103120008B301CF16A2D0E94F02C892F082E000C88
:10313000990BC816D90691F48091F8028E9DA001D2
:103140008F9D500D112455954795559547959E0196
:103150006091F7028091F6020E94D715B00EF1E05F
:10316000EF1AF108D1F61F5FACCF87FFDFCF909148
:103170001101890FDBCF90E001966091110170E0A1
:103180000E94122DAECF0F931F93CF93DF938091A8
:103190000F019091100123E0829FF0011124E6506D
:1031A000FD4F891740F1C0E0D3E060911101C617CF
:1031B00040F10E94861620910B018091AB02820F94
:1031C0008093AB0290910C01920F90930C01191611
:1031D00054F4082E000C990B409111014150550BED
:1031E000841795071CF0219520930B01DF91CF9157
:1031F0001F910F9108951182108212828F5F339672
:10320000D0CF0C2F10E070E0C8010E94122D209149
:103210000F01820F482F50E02091AB02022E000CCC
:10322000330B02171307BCF020910C01022E000C87
:10323000330B201731077CF08D9F9001112426500D
:103240003D4F4091F8026091F7028091F6020E9492
:10325000D715CF5FAACFFA01EE0FFF1FE40FF51FBE
:10326000E650FD4F118210821282F3CFB0E0A0E051
:10327000ECE3F9E10C948C2DEC014C81042F10E06F
:103280009801D8010E945D2D9B01AC010E94732D15
:103290004B015C01E0E2F0E0E01BF10BA5E5B0E0E2
:1032A000AC019B010E94732D6B017C019F01DF012A
:1032B0000E94552D9B01AC010E947E2D9B01AC010B
:1032C000280D391D4A1D5B1DC701B6010E94262D20
:1032D000F22E822F90E039E23F1520F143E0249F47
:1032E0009001112435952795122F109500E085E562
:1032F000E82EEF1880911101081718F10E94861628
:103300009C8181E0992319F0903219F48FEF80931A
:103310000A0180910A01890F8C83CDB7DEB7ECE0FA
:103320000C94A82D25E530E0B901681B790B9B01B1
:10333000220F331F260F371F37FFD4CF2F5F3F4F8A
:10334000D1CF8E2D01FD8F2D20910F01622F600FA7
:103350007727771F9B01220F331F260F371F265019
:103360003D4F412F6091F7020E94D7150F5FC2CFEA
:103370000F931F93CF93DF93EC0110E000E0909147
:1033800011019017110609F06CF40E9486168C81C9
:1033900090E00196817099278C83DF91CF911F91E6
:1033A0000F91089520910F01A801420F511D9A011C
:1033B000220F331F240F351F26503D4F4C81609143
:1033C000F7028091F60296959017110651F04CF095
:1033D000442349F04091F8020E94D7150F5F1F4F18
:1033E000CECF4423B9F340E0F7CFE5EFF2E08081A0
:1033F0008E7F808360817181828193810E94F91523
:103400001092B5020E9486160895E5EFF2E08081E1
:103410008E7F80831092B5020E9486160895609177
:10342000F502669570E04BE050E082E191E00E9489
:10343000C92D892B19F481E08093B5020E9464257F
:103440009093AE028093AD0208959091F50290FFA3
:103450002BC09170811129C092609093F502662370
:1034600051F06091F5027091F6028091F70290910F
:10347000F8020E94F9156091F502669570E04BE044
:1034800050E082E191E00E94C92D892BA9F01092B1
:10349000B50281E08093B0024091F8026091F7029A
:1034A0008091F6020E9412180895853210F09864F7
:1034B000D4CF880F982BD1CF0E940F1AEACF682F54
:1034C0009091F502969581E0890F853208F081E0B0
:1034D0000E94251A089581E00E945F1A0895682FBE
:1034E0009091F50296958FEF890F09F484E20E947E
:1034F000251A089581E00E946F1A089561E00E94E4
:10350000251A0895E5EFF2E0808181608083869539
:103510000E947E1A08958091F50280FF03C00E94E8
:10352000F51908950E94821A089560E00E94251AF4
:1035300008958091B30281112EC00E94890D8111DE
:1035400004C00E941C0E0E9417160E94F41560937E
:10355000F5027093F6028093F7029093F8026E7F63
:1035600061F40E9417160E94F4156093F50270939F
:10357000F6028093F7029093F8020E94E5151092EC
:10358000B5028091F50280FF03C086950E94951ACE
:1035900081E08093B3020895E5EFF2E080818160DD
:1035A000808386950E94951A08958091F50280FF88
:1035B00003C00E94051A08950E94CC1A08950F9323
:1035C0001F93CF93DF938091B5028823B9F1809147
:1035D000B402E091F502E695E81BE093AF02823079
:1035E00091F5F0E0E65AFE4FE491CE2FD0E00AEDDF
:1035F00016E18091B002882361F01092B0020E941F
:1036000064259093AE028093AD021092B2021092A4
:10361000B1020E946425E091AD02F091AE028E1BD2
:103620009F0B8F3F9F4750F4EC0FFD1FF093AE02AE
:10363000E093AD028DEA92E0F8010995DF91CF9118
:103640001F910F910895863049F4F0E0E95AFE4F3A
:10365000E491CE2FD0E00EEE16E1CBCF893051F4BD
:10366000E695F0E0EC5AFE4FE491CE2FD0E006E173
:1036700018E1BFCF8F3051F4E695F0E0EF5AFE4FDE
:10368000E491CE2FD0E003E518E1B3CF853149F4C2
:10369000F0E0E25BFE4FE491CE2FD0E003EC18E1C6
:1036A000A8CFC8E2D0E006E319E1883109F4A1CF40
:1036B000833239F4ECE4F1E0C591D4910EEF16E1D8
:1036C00098CFC4EFD1E008EB19E1843209F491CF2F
:1036D000C0EDD7E003ED15E18CCFFA01811101C0F7
:1036E000FB0109950895CF93DF93C82FD62F0E9431
:1036F00027168C1748F00E9427168D1728F40E9471
:103700006B1ADF91CF9108958C2F0E947E1AF9CF0A
:103710001F93CF93DF93EC01FB011281111110C0B5
:103720000E949B0C8272FE01E052F847E531F105E0
:1037300008F05BC0EE5BF14D0C94482D0E948B1A93
:10374000812FDF91CF911F9108954AE75AE16BE6EF
:103750007AE10E946D1BF4CF4BE65AE16AE77AE109
:10376000F8CF4AEC57E16BEB77E1F3CF4BEB57E146
:103770006AEC77E1EECF4CEE57E16BED77E1E9CF04
:103780004BED57E16CEE77E1E4CF4EE058E16DEFA1
:1037900077E1DFCF4DEF57E16EE078E1DACF4FE52B
:1037A00056E167E476E1D5CF47E456E16FE576E18F
:1037B000D0CF81E00E947E1AC3CF65E082E00E94F4
:1037C000731BBECF68E086E0FACF6EE089E0F7CFEA
:1037D00064E18FE0F4CF67E185E1F1CF88E1EACFE2
:1037E00062E289E1ECCF83E2E5CF11E0A9CF219A33
:1037F00045B14D7F55B15260EFB7F8949B01220F50
:10380000331F260F371F280F391F2817390741F498
:10381000EFBF8FE594E00197F1F700C00000089535
:10382000DC016D91CD0178E055B9000000C067FF63
:1038300045B9660F000000C000C000C045B900C017
:103840007A9591F7E2CF82E290E00E94EC2D8332EC
:1038500089F483E290E00E94EC2D883059F484E2F0
:1038600090E00E94EC2D91E0873109F090E0892FE3
:103870008170089580E0FCCFCF93C82F6FEF811146
:1038800063E282E290E00E94002E6FEFC11168E0D7
:1038900083E290E00E94002E6FEFC11167E184E2A5
:1038A00090E00E94002ECF910895089585E290E067
:1038B0000E94EC2D682F70E090E080E0089508955C
:1038C000CF93C62F0E945F1C6C2F85E290E00E9470
:1038D000002ECF91089580E00E943C1C60E070E0D3
:1038E000CB010E94601C0E94F5200E94C22181E051
:1038F0000E943C1C08950E94551C0E94561C0E9468
:103900005F1C0E94231C811102C00E946B1C089541
:103910000E94D51A08959C01FB018281882351F0F1
:10392000A90157574038510530F4822F0E94D22107
:1039300080E0089581E008952FEFFC012083089531
:1039400080E00895CF93DF93EC0188818230E9F025
:1039500028F4813071F0DF91CF9108958330F9F030
:103960008430C9F70E94791689830E947C168A8365
:10397000F2CF0E947F162FEF829FC00111246FEFBC
:1039800070E00E94FE2C6983E6CF0E942F168823E8
:1039900021F00E9427168983DECF80E0FCCF0E94B1
:1039A0006316F9CFCF93DF93EC018881823021F148
:1039B00028F4813069F0DF91CF910895833041F18F
:1039C0008430C9F70E947F16482F6A81898111C00F
:1039D00089812FEF829FC00111246FEF70E00E9458
:1039E000FE2CD62F0E947C16C82F0E9479164D2FD0
:1039F0006C2F0E941218DFCF8981811103C00E94B1
:103A0000051AD9CF0E94CC1A89810E94951AD3CF6A
:103A100089810E947516CFCFFC019C012E5F3F4F1C
:103A20009081983041F0993051F0973059F4C901A4
:103A30000E94D21C0895C9010E94A21C08950E94F0
:103A40000C1608958FEF80830895FC0121812230A8
:103A500019F40E940C1D08950E949C1C0895B0E06A
:103A6000A0E0E5E3FDE10C94902DEC01E62E0E9430
:103A7000A01C811110C0E881E150E331B8F4F0E0FE
:103A8000E95AF14D0C94482D19828CE08A836E2DF1
:103A9000CE010E942426CDB7DEB7E8E00C94AC2D11
:103AA00089818230C1F028F4813061F08FEF888302
:103AB000EECF833099F08430C9F71A821B821C82C2
:103AC0001D82E5CF0E9470250E944E2D6A837B8364
:103AD0008C839D83DCCF0E94561CF6CF8A81082FF1
:103AE00010E06E0193E0C90ED11C9CE1F92EF80E96
:103AF0000430110560F6802F0E946A11F60181934F
:103B00006F010F5F1F4FF012F3CFC1CF8981823059
:103B100031F0853059F68A810E94881CB8CF6A81BD
:103B20007B818C819D810E944E2D0E94601CAFCFB5
:103B30004B816A8189810E94B7209827892798271D
:103B40009D838C83A4CF2C813D813227232732276C
:103B50004B816A8189810E94D92099CF0E94F520EA
:103B600096CF6E2DCE010E94251D91CF0E9473210C
:103B700089838DCF0E9475219827892798279A835A
:103B8000898385CF6B8170E089819A81AE014C5F1A
:103B90005F4F9827892798270E94782178CF6B81DB
:103BA00070E089819A81AE014C5F5F4F9827892729
:103BB00098270E949D216BCF0E94C22168CF0E944E
:103BC000A520D6CF6B8170E089819A81AE014C5FD0
:103BD0005F4F9827892798270E94212158CF6B8112
:103BE00070E089819A81AE014C5F5F4F98278927E9
:103BF00098270E9444214BCFCF93DF93EC01FB0128
:103C00008281882309F4D2C09E01305723323105C6
:103C100008F0B2C00E949F0D9093EC028093EB02DB
:103C2000FE01E150F047E232F10520F4E659F14D92
:103C30000C94482D8091EB0281608093EB0293C03D
:103C40008091EC0288608093EC028DC08091EB0241
:103C50008260F3CF8091EB028460EFCF8091EB0222
:103C60008860EBCF8091EC028160EDCF8091EC0217
:103C70008260E9CF8091EB028061DFCF8091EB021F
:103C80008062DBCF8091EB028064D7CF0E94F9077E
:103C90008091EB028068D1CF8091EB028C60CDCF18
:103CA0008091EC028360CFCF8091EB028E7FC5CFF5
:103CB0008091EC02877FC7CF8091EB028D7FBDCFD3
:103CC0008091EB028B7FB9CF8091EB02877FB5CFDC
:103CD0008091EC028E7FB7CF8091EC028D7FB3CFC5
:103CE0008091EB028F7EA9CF8091EB028F7DA5CFD3
:103CF0008091EB028F7BA1CF0E94F9078091EB02AC
:103D00008F779BCF8091EB02837F97CF8091EC02DE
:103D10008C7F99CF8091EB0282FB992790F921E06B
:103D2000922790FB82F990FB83F987CF8091EC0278
:103D3000982F909591708E7F892B90FB81F983CF7E
:103D40009091EB02892F8F7B96FF806476CF0E9443
:103D5000F9079091EB02892F97FB87F980586DCF77
:103D600081E00E941F0E8091EB029091EC020E9474
:103D7000A40D0E94F90780E0DF91CF91089580E0C3
:103D8000F0CF9091EB02892F8F7E94FF806155CF09
:103D90009091EB02892F8E7F90FF81604ECF9091A2
:103DA000EC02892F877F93FF88604DCF81E0E4CFBD
:103DB000B0E0A0E0EEEDFEE10C94912DE82FF0E0F4
:103DC000ED59FC4FD490282F26952695269530E066
:103DD000F901ED5FFB4F0491877010E0082E02C0DF
:103DE000159507950A94E2F701701127F901ED5036
:103DF000FC4FE490F12C082E02C0F594E7940A944D
:103E0000E2F791E0E922FF24F901ED51FC4FC49162
:103E1000D0E002C0D595C7958A95E2F7C170DD273D
:103E20000115110519F081EE0E94F404E114F1046A
:103E300019F086EE0E94F4048D2D0E948C05E11489
:103E4000F10419F086EE0E9441050115110519F0E3
:103E500081EE0E944105CD2B19F08CE20E948C0569
:103E6000CDB7DEB7E7E00C94AD2DEF92FF920F9344
:103E70001F93CF93DF93EC01162F0AE088818823EC
:103E800009F454C0813009F04EC08981813099F421
:103E90007E0122E0E20EF11C8A810E948C05E7017E
:103EA0002196812F815050F3EFE9FFE03197F1F730
:103EB00000C00000F7CF823041F47E0182E0E80EBE
:103EC000F11C8A810E94F404EACF833041F47E0120
:103ED000E2E0EE0EF11C8A810E944105E0CF8430C1
:103EE00011F02196DDCF2A81229690E080E0AE018C
:103EF0004F5F5F4F2053330B2A30310548F0019755
:103F000078F2EFE9FFE03197F1F700C00000F7CF5A
:103F1000089FB001099F700D1124C901860F971FDA
:103F20002981EA01E4CF0E94D81EBACFCDB7DEB70F
:103F3000E6E00C94AE2D8FE891E00197F1F700C018
:103F4000000008950E9474030895FF920F931F9339
:103F5000CF93DF9382E08093B80205EE11E0C3EEC9
:103F6000D1E0AE01D80121E030E08D91E82FE2955B
:103F7000EF70F0E0F1A08F70B90101C0660F8A9573
:103F8000EAF7962F90959F2191A382A1862B82A379
:103F9000FA018191AF01E82FE295EF70F0E0F1A016
:103FA0008F70B90101C0660F8A95EAF7962F909538
:103FB0009F2191A382A1862B82A3F1E0A73EBF0798
:103FC000A1F60E949B1F6091B8024BEB52E0FA01F0
:103FD0008E2F841B861728F0CDB7DEB7E5E00C9452
:103FE000AF2DD8012D918D01A22FA295AF70B0E019
:103FF00090968C9190E02F7002C0959587952A95A8
:10400000E2F781709991A92FA295AF70B0E09096D8
:104010002C9130E09F7002C0359527959A95E2F774
:1040200090E020FD92E0892B8193D2CFB0E0A0E018
:10403000ECE1F0E20C94902D10E000E08091B802E9
:10404000181730F0802FCDB7DEB7E8E00C94AC2D18
:10405000C12FD0E0FE01EB51FE4F8081E82FE295A9
:10406000EF70F0E0E0A1F0E08F7002C0F595E79509
:104070008A95E2F7E170DE01AD51BE4F2C91A22F7F
:10408000A295AF70B0E090968C9190E02F7002C036
:10409000959587952A95E2F780FD55C080E08E2B97
:1040A000DE01A554BD4FEC919E2F9370981709F433
:1040B00048C0EE0FEE0FE82BEC93DE01AF51BE4F80
:1040C000CC90EF70F0E0EF52FE4FCE0187549D4F41
:1040D0007C018081F7019081890F8083D12C082E8B
:1040E000000C990B20E08C159D055CF0FE01EA5454
:1040F000FD4F80818F5F808360E0812F0E94A21F2F
:1041000021E0F7018081082E000C990B44275527E8
:104110004C195D094817590754F0CA54DD4F88817E
:104120008150888361E0812F0E94A21F21E0F70166
:104130008081082E000C990BB6010E94122D8083FD
:10414000022B1F5F7BCF82E0AACF84E0089550E06E
:10415000440F551F9AE0699F400D511D112498E2AC
:10416000899F400D511D1124CA01869608950F9311
:104170001F93CF93DF938430C8F46430B8F4453094
:10418000A8F40E94A7208C010E94EC2DC82FD0E03B
:10419000DC2FCC27C80101960E94EC2D9E01282B14
:1041A000C901DF91CF911F910F91089590E080E0B8
:1041B000F8CF0F931F93CF93DF93122F032F8430E9
:1041C00078F4643068F4453058F40E94A720EC017C
:1041D000602F0E94002E612FCE0101960E94002EBA
:1041E000DF91CF911F910F9108950F931F93CF935C
:1041F000DF93D0E0C0E010E019C00E94780321E016
:1042000030E08C171D0639F034F0402F612F8C2FD1
:104210000E947A039C01402F612F8C2F0E94D9208D
:104220000F5F053051F71F5F143011F000E0E5CF4C
:104230002196C430D105F9F6DF91CF911F910F91EE
:104240000895EF92FF920F931F93CF93DF93EC01AA
:104250008A017C01E60EF71ECE018696CE15DF059B
:1042600029F4CDB7DEB7E6E00C94AE2DC03AD10507
:1042700040F40E94EC2DF80180830F5F1F4F2196C0
:10428000EBCFF8011082F9CFB0E0A0E0EAE4F1E270
:104290000C94902D7C016A018C01060F171FEC0114
:1042A000CE018696C017D10729F4CDB7DEB7E8E076
:1042B0000C94AC2DC03AD10540F4FE01EE19FF0973
:1042C000EC0DFD1D60810E94002E2196E9CF843007
:1042D00038F4643028F4453018F40E94B72008956B
:1042E00090E080E0089580E108958AE393E00895E6
:1042F000EF92FF920F931F93CF93DF93EC018A010C
:104300007C01E60EF71ECE018A539F4FCE15DF05C6
:1043100029F4CDB7DEB7E6E00C94AE2DCA3323E026
:10432000D20740F40E94EC2DF80180830F5F1F4FED
:104330002196E9CFF8011082F9CFB0E0A0E0E3EADE
:10434000F1E20C94902D7C016A018C01060F171F7D
:10435000EC01CE018A539F4FC017D10729F4CDB786
:10436000DEB7E8E00C94AC2DCA3323E0D20740F46A
:10437000FE01EE19FF09EC0DFD1D60810E94002E6B
:104380002196E7CFCF93DF93C6ECD0E060E0CE017B
:104390000E94002E2196C11584E0D807B9F7DF915D
:1043A000CF910895A8E0B0E0E8EDF1E20C948E2DF5
:1043B000F82E8FE08F1508F46EC08FEF93E00E9407
:1043C000EC2D811168C006EC10E0F11035C0FE0143
:1043D00031966F0188E011928A95E9F77801FFEF35
:1043E000EF1AFF0AC8010E94EC2D89831A828823E4
:1043F00009F451C08130D1F4580182E0A80EB11CFB
:10440000C7010E94EC2D8A83882309F444C09FEFE2
:10441000980F9330F0F4780193E0E90EF11CC50198
:104420000E94EC2D8B838823B1F11C826AE0C601C7
:104430000E94351F8701D2CF011594E0190759F169
:10444000C8010E94EC2D811101C0FA940F5F1F4F2B
:10445000BCCF7501843051F702E010E07501EFEF39
:10446000EE1AFE0AC5010E94EC2DF601E00FF11FC5
:104470008083882381F08C3741F4E2E0F0E0EC0F98
:10448000FD1FE00FF11F1082D1CF0F5F1F4F5701AB
:104490000730110519F72896EAE00C94AA2DCF935E
:1044A000DF93EB0186319C4711F50E949B0C9A81AA
:1044B000992399F08A7A91E009F490E09093BD02F3
:1044C000811109C089E20E94730C0E94DC0C80E01B
:1044D000DF91CF91089585E3F6CF8091BD028111E0
:1044E00004C089E20E947B0CF0CF85E3FBCF81E022
:1044F000EFCF0F931F93CF93DF93C42FD22FFC01E5
:1045000082818823C9F04093C0020E946425909361
:10451000BF028093BE0280E28C0F883040F4C770E7
:1045200081E001C0880FCA95EAF70E949505DF91E6
:10453000CF911F910F9108951091C002141332C0B2
:104540008091BE029091BF020E947C25883C91051B
:1045500048F5C0E2CD0F1D17B9F080E2810F883019
:1045600040F4177081E001C0880F1A95EAF70E94A5
:104570009C05C83048F481E09D2F977001C0880FDA
:104580009A95EAF70E949505802F0E948C05C83005
:1045900070F6D77081E001C0880FDA95EAF70E94C3
:1045A0009C05C5CF80E28C0F883008F6C77081E08B
:1045B00001C0880FCA95EAF7F2CF0F93DB0188514B
:1045C0009C4787309105A0F5FC01E457F14D0C9410
:1045D000482D06E221EE41EE6AE17CE7CD010E9422
:1045E000792280E00F91089507E225EE45EE6BE118
:1045F0007CE7F4CF06E221EE40EE68E17CE7EECF07
:1046000007E225EE44EE69E17CE7E8CF06E221EE21
:1046100042EE6CE17CE7E2CF07E225EE46EE6DE18B
:104620007CE7DCCF08E221E045EE6EE17CE7D6CF07
:1046300012968C91882319F01092C002D3CF81E09A
:10464000D1CF1F93CF93DF9387372CE7920759F091
:10465000C1E088379C47E1F4FB01C281CC2371F1B2
:104660000E94642306C0FB01C281CC23B1F00E94EA
:1046700061230E9477080E946723D82F0E94642339
:10468000C82F0E9461234D2F6C2F0E949F09C0E00C
:104690008C2FDF91CF911F9108950E9461230E947A
:1046A00083080E946723182F0E946423D82F0E943A
:1046B0006123412F6D2F0E949F09EACF0E9464233E
:1046C000EECF80911F01089580911E010895809181
:1046D0001D0108959093F7018093F601089590933A
:1046E000C6028093C5020895E091C502F091C6020A
:1046F000309729F00190F081E02D0995089580E030
:104700000895E091C502F091C602309799F020918A
:104710002801222359F02091EB0227FF07C0DC017A
:104720002C9111962C93119726E02C930280F38103
:10473000E02D09950895E091C502F091C6023097E9
:1047400039F022E0DC012C930480F581E02D0995FD
:104750000895A3E0B0E0EFEAF3E20C94962D2091E7
:10476000C3023091C40228173907A1F09093C40204
:104770008093C302E091C502F091C602309751F0D8
:1047800023E029839B838A830680F781E02DCE0175
:10479000019609952396E2E00C94B22DA3E0B0E0D7
:1047A000E4EDF3E20C94962D2091C1023091C20207
:1047B00028173907A1F09093C2028093C102E091BB
:1047C000C502F091C602309751F024E029839B8303
:1047D0008A830680F781E02DCE0101960995239604
:1047E000E2E00C94B22DFC013296809128018823DE
:1047F00021F08091EB029EE187FF96E080E09150EE
:1048000008F4089521912223D1F38F5FF8CF662316
:1048100001F1209128012223F1F02091EB0227FFE2
:104820001AC0462F4695469546954E3190F46770CE
:1048300021E030E002C0220F331F6A95E2F7840FB7
:10484000911DFC01828190E02823392381E0232BF4
:1048500069F480E00895FC013296089621912617AC
:1048600021F0E817F907D1F7F4CF81E008959C0112
:10487000FC0132969FEF80E04191461751F09F3F37
:1048800019F4411101C0982F8F5F8630A9F79F3F1F
:1048900009F40895290F311D97FD3A95F9016283B6
:1048A0000895FC01329608962191261303C0DF017A
:1048B00011971C92E817F907B9F70895E62FE695C6
:1048C000E695E695EE3168F4E80FF92FF11D677073
:1048D00021E030E001C0220F6A95EAF78281822B45
:1048E00082830895E62FE695E695E695EE3170F41D
:1048F000E80FF92FF11D677021E030E001C0220FB1
:104900006A95EAF7209582812823228308952091D1
:104910002801222339F02091EB0227FF03C00E94D7
:104920005E2408950E9437240895209128012223AF
:1049300039F02091EB0227FF03C00E9472240895F2
:104940000E9451240895FC01329680912801882309
:1049500051F08091EB0287FF06C08EE1DF011D92CE
:104960008A95E9F7089586E0F9CF46E050E00E9485
:10497000D62D21E0892B09F420E0822F0895089597
:104980000E94BF240895811106C081E08093C70270
:104990000E94C024089582E0F9CF83E08093C7028B
:1049A0000E94C02408950E94C324089581E080934A
:1049B000C7020E94C02408950E94D6240895089535
:1049C00008950E94E0240895089508950E94DF2428
:1049D0000895CF930E94E4240E9422120E94E524AD
:1049E000C0E08C2F0E946A11811105C0CF5FC430D6
:1049F000C1F7CF91089581E0FCCF85B7806885BF6E
:104A000085B7806885BF08951F921FB61F92112435
:104A10008F939F93AF93BF938091C802811113C06E
:104A20008091180390911903A0911A03B0911B0370
:104A30004196A11DB11D8093180390931903A09373
:104A40001A03B0931B03BF91AF919F918F911F9059
:104A50001FBE1F90189580912003843031F10E9471
:104A600066041092C80288E190E020E40FB6F89442
:104A7000A895809360000FBE2093600083B7817F6C
:104A8000846083BF83B7816083BF7894889583B740
:104A90008E7F83BF0FB6F894A895809160008861DF
:104AA00080936000109260000FBE08950E94F90785
:104AB0000E946B04089582E084BD93E095BD9AEF57
:104AC00097BD80936E0008952FB7F89480911803D6
:104AD00090911903A0911A03B0911B032FBF089561
:104AE0002FB7F894609118037091190380911A03FD
:104AF00090911B032FBF08959C014FB7F8948091AC
:104B0000180390911903A0911A03B0911B034FBF92
:104B1000821B930B089578941F921FB61F92112445
:104B20008F939F93AF93BF93809118039091190334
:104B3000A0911A03B0911B030196A11DB11D809392
:104B4000180390931903A0931A03B0931B03BF910A
:104B5000AF919F918F911F901FBE1F90189587E76F
:104B600097E7909301088093000888E19AE00FB6D8
:104B7000F894A895809360000FBE90936000FFCFDB
:104B800088E19AE00FB6F894A895809360000FBE74
:104B900090936000FFCF8091E90208959B01BA01D4
:104BA000909120039430E9F48F708093E9009FEF97
:104BB0008091E800915085FD06C085ED8A95F1F75A
:104BC00000009111F5CF8091E80085FF0AC050E008
:104BD00040E0C9010E941A288091E8008E778093F6
:104BE000E800089543E050E0BC0184E00E94CE2537
:104BF000089546E050E0BC0184E00E94CE2508956F
:104C0000CF93DF93EC0180912801811111C048E01E
:104C100050E0BE0181E00E94CE2580E2FE01A9ECB9
:104C2000B2E001900D928A95E1F7DF91CF9108955E
:104C30008091EB0287FF05C040E284E050E0BE01B6
:104C4000EACF48E081E0FACF603231F440E250E050
:104C5000BC0182E00E94CE25089580911F0381113E
:104C600009C00E94F9290E94562A8091E2008460BE
:104C70008093E200089510921F0308950E94D624A5
:104C8000089560911C0381E0611101C080E00E94E1
:104C9000CD2408959091200381E0943009F080E0C4
:104CA00060911C030E94D324089542E061EC81E0EE
:104CB0000E94752942E261EC84E00E94752942E27B
:104CC00061EC82E00E94752942E260EC83E00E9480
:104CD00075299091200381E0943009F080E0609183
:104CE0001C030E94C324089580912203833009F499
:104CF00063C030F48130E1F1823009F4A0C008953E
:104D00008A3009F48CC08B3009F471C0893009F005
:104D100052C080912103813209F04DC0809125035A
:104D200090912603009719F0029709F044C08091F2
:104D3000E800877F8093E8008091E80082FF37C019
:104D40009091F3008091F200029731F48091F1008C
:104D5000813011F0863021F48091F1008093E902D6
:104D60008091E8008B778093E8000E94A92923C0F6
:104D700080912103813AF9F48091E800877F809344
:104D8000E8008091250390912603892B61F460E26D
:104D900089EC92E070E00E94B8288091E8008B775F
:104DA0008093E800089560E090E080E0F3CF809188
:104DB00020038111C1CF089580912103813AD9F751
:104DC0008091250390912603892BA9F78091E80013
:104DD000877F8093E8008091E80080FFFCCF80917E
:104DE00028018093F1008091E8008E77BCCF8091FC
:104DF0002103813201F78091250390912603892BAD
:104E0000D1F68091E800877F8093E8000E94A9296D
:104E100080912303809328010E94F90708958091CF
:104E20002103813241F68091E800877F8093E8007A
:104E30000E94A929809124038093EA020895809119
:104E40002103813A09F0B7CF8091E800877F8093F2
:104E5000E8008091E80080FFFCCF8091EA02C1CF9A
:104E600084B7877F84BF0FB6F894A89580916000BF
:104E7000886180936000109260000FBE80E890E02F
:104E80000FB6F89480936100909361000FBE0E946A
:104E9000DC2408950E94F9290E94562AE2EEF0E0EF
:104EA00080818460808378940E94D52C089580E26C
:104EB00091E00E946F23089580912003853031F4A2
:104EC00080912003853019F00E94562508950E9494
:104ED0002B2580911E03882399F30E94E9248823BF
:104EE00079F30E9404280E94F907EACFA0E2B0E01B
:104EF000ECE7F7E20C94962D80912003843009F5BD
:104F000083E08093E9008091E80082FF1AC08091DD
:104F1000E80090E085FF09C050E040E060E270E00A
:104F2000CE0101960E94692891E08091E8008B777C
:104F30008093E800992329F060E2CE0101960E9457
:104F40002F1DA096E2E00C94B22D9A014091270308
:104F5000509128030E94AD270895492F55274330CB
:104F6000510521F168F44130510509F443C0423044
:104F7000510509F444C090E080E050E040E026C0D4
:104F80004132510551F142325105A9F763307105A3
:104F900090F7FB01EE0FFF1FE651FE4F408151815C
:104FA00069517E4FFB01808190E010C099278130CC
:104FB000910581F0009729F00297E9F6E3E1F4E02A
:104FC00002C0EDE4F4E0849190E0AF01F901518377
:104FD00040830895E3E2F4E0F6CF6330710558F6BC
:104FE000660F771FFB01E051FE4F4081518189E040
:104FF00090E0ECCF82E190E04CEA54E0E7CF8BE523
:1050000090E041E554E0E2CF80E189BD82E189BDD5
:1050100009B400FEFDCF8091D8008F7D8093D80029
:105020008091E00082608093E0008091E00081FD4B
:10503000FCCF0895AF92BF92CF92DF92FF920F9371
:105040001F93CF93DF936C01EB018A010E94C82963
:10505000F82E811123C00115110539F0F801808166
:105060009181C81BD90BC80ED91EB12CA12C209739
:10507000A9F08091E80085FD22C08091E8008E773C
:105080008093E80001151105A1F0F801808191815C
:10509000A80EB91EB182A08285E0F82E8F2DDF9177
:1050A000CF911F910F91FF90DF90CF90BF90AF9065
:1050B00008950E94C8298823D1F2F82EEFCFF60177
:1050C00081916F018093F1002197FFEFAF1ABF0A22
:1050D000CECFAF92BF92CF92DF92FF920F931F93EA
:1050E000CF93DF936C01EB018A010E94C829F82E4F
:1050F000811123C00115110539F0F80180819181DA
:10510000C81BD90BC80ED91EB12CA12C2097A9F011
:105110008091E80085FD22C08091E8008B77809324
:10512000E80001151105A1F0F80180819181A80E18
:10513000B91EB182A08285E0F82E8F2DDF91CF912C
:105140001F910F91FF90DF90CF90BF90AF90089587
:105150000E94C8298823D1F2F82EEFCF8091F10068
:10516000F60181936F012197FFEFAF1ABF0ACECFEF
:10517000FC01809127039091280386179707A0F0E0
:105180006115710529F49091E8009E779093E800ED
:1051900090E06115710551F4911108C08091E8000B
:1051A00082FF34C080E00895BC01F2CF80912003DB
:1051B0008823C1F18530C1F18091E80083FD30C0C2
:1051C0008091E80082FDEACF8091E80080FFE1CF86
:1051D0008091F3002091F200382F6115710519F0CC
:1051E0002830310558F091E02830310509F090E081
:1051F0002091E8002E772093E800CBCF8191809317
:10520000F100615071092F5F3F4FE7CF809120037C
:10521000882341F0853041F08091E80083FFBECFC4
:1052200081E0089582E0089583E00895FC01809173
:1052300027039091280386179707A0F06115710541
:1052400029F48091E8008E778093E80090E0611562
:10525000710551F4911108C08091E80082FF35C0BA
:1052600080E00895BC01F2CF809120038823C9F12A
:105270008530C9F18091E80083FD31C08091E8005C
:1052800082FDEACF8091E80080FFE1CF8091F300BA
:105290002091F200382F6115710519F02830310581
:1052A00058F091E02830310509F090E08091E80055
:1052B0008E778093E800CBCF84918093F100319674
:1052C000615071092F5F3F4FE6CF80912003882303
:1052D00041F0853041F08091E80083FFBDCF81E04F
:1052E000089582E0089583E00895982F973028F07C
:1052F0008F708093E90081E008959093E900242F56
:10530000762F50E0981731F07091EC002091ED006D
:105310005091F00021FD02C09F5FE8CF3091EB007B
:105320003E7F3093EB003091ED003D7F3093ED00F8
:105330003091EB0031603093EB007093EC002093E0
:10534000ED005093F0002091EE0027FDE5CF80E0C6
:1053500008958091210387FF13C08091E80082FFA8
:1053600006C08091E8008B778093E80004C08091AC
:1053700020038111F2CF0895809120038823D9F36F
:105380008091E80080FFF8CF8091E8008E77ECCF25
:105390002091E4003091E50095E6A9012091EC0010
:1053A000822F817020FF06C08091E80080FF06C038
:1053B00080E008952091E80022FD1AC0809120032A
:1053C000882389F0853089F08091EB0085FD0FC03E
:1053D0002091E4003091E50042175307F9F2915013
:1053E000E1F684E0089582E0089583E0089581E085
:1053F00008950E94682A0E94702AE0EEF0E0808101
:1054000081608083E8EDF0E080818F77808319BC34
:10541000A7EDB0E08C918E7F8C9380818F7E80830E
:1054200010921F0308950F931F93CF93DF930E9451
:10543000682A0E94702AC8EDD0E088818F7788831F
:1054400088818068888388818F7D888319BC1092C9
:10545000200310921C0310921E0310921D0300EEF5
:1054600010E0F80180818B7F808388818160888350
:1054700042E060E080E00E947529E1EEF0E080818A
:105480008E7F8083E2EEF0E0808181608083808186
:1054900088608083F80180818E7F8083888180612D
:1054A0008883DF91CF911F910F910895E8EDF0E08F
:1054B00080818F7E8083E7EDF0E080818160808352
:1054C00084E082BF81E080931F030E94132A089525
:1054D000E8EDF0E080818E7F80831092E2000895F5
:1054E0001092DA001092E10008951F920F920FB609
:1054F0000F9211242F933F934F935F936F937F935A
:105500008F939F93AF93BF93EF93FF938091E100AD
:1055100082FF0BC08091E20082FF07C08091E10012
:105520008B7F8093E1000E94D42C8091DA0080FF71
:1055300019C08091D80080FF15C08091DA008E7F5D
:105540008093DA008091D90080FF96C080E189BD08
:1055500082E189BD09B400FEFDCF81E08093200384
:105560000E942D268091E10080FF19C08091E20009
:1055700080FF15C08091E2008E7F8093E2008091D1
:10558000E20080618093E2008091D8008062809385
:10559000D80019BC85E0809320030E9441268091A9
:1055A000E10084FF2BC08091E20084FF27C080E1EE
:1055B00089BD82E189BD89B5982F917080FFFBCFAD
:1055C0008091D8008F7D8093D8008091E1008F7EFC
:1055D0008093E1008091E2008F7E8093E2008091D1
:1055E000E20081608093E20080911C03882309F42B
:1055F00049C084E0809320030E944A268091E10004
:1056000083FF29C08091E20083FF25C08091E100E3
:10561000877F8093E10082E08093200310921C0337
:105620008091E1008E7F8093E1008091E2008E7F87
:105630008093E2008091E20080618093E20042E08A
:1056400060E080E00E9475298091F000886080937E
:10565000F0000E943E26FF91EF91BF91AF919F9184
:105660008F917F916F915F914F913F912F910F900B
:105670000FBE0F901F90189519BC109220030E9426
:105680003B2670CF8091E30087FD93E09093200349
:10569000B3CF1F920F920FB60F9211242F933F9307
:1056A0004F935F936F937F938F939F93AF93BF932A
:1056B000CF93DF93EF93FF93D091E900DF70809158
:1056C000EC00C82FC17080FDC0E81092E900809105
:1056D000F000877F8093F00078940E948D2B1092C9
:1056E000E9008091F00088608093F000CD2BCF70AE
:1056F000C093E900FF91EF91DF91CF91BF91AF91FE
:105700009F918F917F916F915F914F913F912F91D9
:105710000F900FBE0F901F901895AAE2B0E0E3E93A
:10572000FBE20C94952D81E293E02091F100FC01C5
:105730002193CF01F3E089329F07B9F70E947426C5
:105740008091E80083FF1EC1809121039091220384
:105750009A3008F017C1E92FF0E0ED56F14D0C94A6
:10576000482D803899F0823809F00CC180912503CA
:105770008F70873008F006C18093E9008091EB00BC
:1057800085FB882780F91092E90006C080911D03EF
:1057900090911E03911182609091E800977F909301
:1057A000E8008093F1001092F1008091E8008E777C
:1057B000E5C0882309F4D3C0823009F0E3C08091AA
:1057C00023038111D6C0809125038F702FEF280FFE
:1057D000263008F0D7C08093E9002091EB0020FF2D
:1057E000C8C0933031F48091EB0080628093EB006D
:1057F000C0C09091EB0090619093EB0021E030E00D
:1058000001C0220F8A95EAF72093EA001092EA007D
:105810008091EB008860EACF8111B4C0109123031E
:105820001F778091E3008078812B8093E300809143
:10583000E800877F8093E8000E94A9298091E80012
:1058400080FFFCCF8091E30080688093E30082E0DA
:10585000111183E08093200395C08058823008F0B6
:1058600091C080912303909124038C3D23E0920703
:10587000A1F583E08A838AE289834FB7F894DE0139
:10588000139620E03EE051E2E32FF0E05093570002
:10589000E49120FF03C0E295EF703F5FEF708E2F21
:1058A00090E0EA30C0F0C7968D939D932F5F24312E
:1058B00059F74FBF8091E800877F8093E8006AE244
:1058C00070E0CE0101960E94B8288091E8008B77A5
:1058D0008093E80057C0C096E7CF60912503709190
:1058E0002603AE014F5F5F4F0E94A527BC01892BA5
:1058F00009F448C09091E800977F9093E80089816F
:105900009A810E941629E1CF8038E1F58091E80064
:10591000877F8093E80080911C038093F10045CF3E
:10592000811130C090912303923060F58091E8009E
:10593000877F8093E80090931C030E94A92980919F
:105940001C03882311F084E005C08091E30087FDEB
:10595000FACF81E0809320030E94552613C08091E6
:105960002303813079F481E0933009F080E0809363
:105970001E031092E9008091E800877F8093E80081
:105980000E94A9298091E80083FF0AC08091E80065
:10599000877F8093E8008091EB0080628093EB002A
:1059A000AA96E3E00C94B12D0895CF938091200343
:1059B0008823A1F0C091E900CF709091EC00892F6D
:1059C000817090FD80E8C82B1092E9008091E8007A
:1059D00083FD0E948D2BCF70C093E900CF91089575
:1059E00087FB082E062687FD819567FD61950E943D
:1059F000BD2D0EF4919507FC81950895AA1BBB1B44
:105A000051E107C0AA1FBB1FA617B70710F0A61BBE
:105A1000B70B881F991F5A95A9F780959095BC01DF
:105A2000CD01089597FB072E16F4009407D077FD5B
:105A300009D00E94FE2C07FC05D03EF4909581957C
:105A40009F4F0895709561957F4F0895A1E21A2E9A
:105A5000AA1BBB1BFD010DC0AA1FBB1FEE1FFF1F12
:105A6000A217B307E407F50720F0A21BB30BE40B62
:105A7000F50B661F771F881F991F1A9469F76095A9
:105A80007095809590959B01AC01BD01CF01089563
:105A9000EE0FFF1F0590F491E02D099469279627DA
:105AA000692778278727782708950E945D2D33235B
:105AB00012F48A1B9B0B0C946E2DA29FB001B39F16
:105AC000C001A39F700D811D1124911DB29F700D07
:105AD000811D1124911D08950E945D2DB7FF089529
