:100000000C9460020C947D020C947D020C947D0291
:100010000C947D020C947D020C947D020C947D0264
:100020000C947D020C947D020C948A260C945E271D
:100030000C9419210C947D020C947D020C947D0289
:100040000C947D020C947D020C947D020C947D0234
:100050000C947D020C94A0210C947D020C947D02E2
:100060000C947D020C947D020C947D020C947D0214
:100070000C947D020C947D020C947D020C947D0204
:100080000C947D020C947D020C947D020C947D02F4
:100090000C947D020C947D020C947D020C947D02E4
:1000A0000C947D020C947D020C947D025F00080389
:1000B00028002A00A9005C00060119012900AA00F5
:1000C000590004011D002B00A90059001D011D034A
:1000D0002800AA000100010001000100A9000100A0
:1000E000010001000100AA0001000100010001005F
:1000F000A9000100010001000100AA0001000100A7
:1001000001000100A9000100010001000100AA0096
:100110000100010001000100A9000100010001002F
:100120000100AA000100010001000100A900010076
:10013000010001000100AA0001000100010001000E
:10014000A9000100010001000100AA000001010155
:100150000101010101010202020202020202020384
:100160000303030303030304040404040404050554
:100170000505050606060606070707070708080817
:1001800008090909090A0A0A0B0B0B0C0C0C0D0DC6
:100190000D0E0E0E0F0F0F1010111111121213135E
:1001A0001414151516161717181819191A1A1B1BD7
:1001B0001C1D1D1E1E1F2020212222232424252633
:1001C00026272829292A2B2C2D2D2E2F303132326B
:1001D000333435363738393A3B3C3D3E3F40414277
:1001E000434445464748494A4C4D4E4F505153545D
:1001F000555658595A5B5D5E5F6162646566686911
:100200006B6C6D6F7072737577787A7B7D7E808290
:10021000838587888A8C8E8F91939596989A9C9ED9
:10022000A0A2A3A5A7A9ABADAFB1B3B5B7BABCBEE9
:10023000C0C2C4C6C9CBCDCFD1D4D6D8DBDDDFE2B6
:10024000E4E7E9EBEEF0F3F5F8FAFDFF000000005B
:10025000000000002A2B2800000000000000000021
:100260000000000000000029000000002C1E3420C7
:10027000212224342627252E362D3738271E1F20ED
:100280002122232425263333362E37381F04050632
:100290000708090A0B0C0D0E0F1011121314151676
:1002A0001718191A1B1C1D2F3130232D3504050674
:1002B0000708090A0B0C0D0E0F1011121314151656
:1002C0001718191A1B1C1D2F3130354C0000000067
:1002D000000000000000000000000000000000001E
:1002E000000000000000000000000000000000000E
:1002F0007E0F00D4FFFFFFC7000000780E037A00D6
:100300006500610070006100640000002803700057
:100310006F0073006900740072006F006E005F0070
:1003200065006C0065006300740072006F006E0071
:100330006900630000000403090409025B00030173
:1003400000A0FA09040000010301010009211101C4
:100350000001224000070581030800010904010093
:1003600002030000000921110100012222000705FB
:100370008203200001070503032000010904020095
:10038000010300000009211101000122B600070548
:100390008403200001120100020000000855F03320
:1003A000350001010200010660FF0961A101096237
:1003B000150026FF009520750881020963150026A7
:1003C000FF00952075089102C005010902A1018571
:1003D000020901A100050919012908150025019547
:1003E00008750181020501093009311581257F95C4
:1003F000027508810609381581257F9501750881E8
:1004000006050C0A38021581257F950175088106BD
:10041000C0C005010980A101850319012AB7001593
:100420000126B700950175108100C0050C0901A1D6
:1004300001850419012AA002150126A00295017563
:10044000108100C005010906A1018506050719E014
:1004500029E7150025019508750181020507190096
:1004600029EF1500250195F0750181020508190194
:100470002905950575019102950175039101C00546
:10048000010906A101050719E029E71500250195D5
:100490000875018102950175088101050719002978
:1004A000FF150026FF009506750881000508190153
:1004B0002905950575019102950175039101C0000B
:1004C00011241FBECFEFDAE0DEBFCDBF11E0A0E008
:1004D000B1E0E0E7F4E502C005900D92A63CB1075B
:1004E000D9F722E0A6ECB1E001C01D92A03FB2070F
:1004F000E1F70E944F120C94CF290C940000A5E064
:10050000B0E0E5E8F2E00C94462988ECE82E81E0C2
:10051000F82E10E000E0F70181917F018823C9F0F7
:100520008695F801F9F0E55EFE4F808191819A830E
:1005300089831B820E9479218160782F9D838C831F
:10054000F7013197108249815A816B818D810E9418
:1005500059040E5F1F4F04301105E9F62596E6E0B9
:100560000C946229E15EFE4FE0CFA5E0B0E0EBEB3A
:10057000F2E00C944629162FE82EF12CC701880FC3
:10058000991F662301F1855E9E4FFC018081918158
:100590009A83898301E00B830E9479218160782FFF
:1005A0009D838C83F701E853FE4F0127110F102B19
:1005B000108349815A816B818D810E94590425964F
:1005C000E6E00C946229815E9E4FDFCF0E947F029D
:1005D00008950E94B50280E0089540E060E08FEF4A
:1005E0000E9462160895CF93C82F0E94090481309B
:1005F00049F0882399F0823049F0833079F44FEF45
:1006000060E006C040E06FEF8FEF03C040E06FEFA7
:1006100080E00E9462168C2FCF91089540E060E048
:10062000F3CF84E008958430B8F46430A8F4453002
:1006300098F450E095E0699F400D511D1124FA0196
:1006400094E1899FE00DF11D1124EE0FFF1FE45589
:10065000FF4F85919491089581E090E0089581E0A5
:10066000089581E008950E943103089508950E943D
:1006700036030895A5E0B0E0E0E4F3E00C944929E6
:1006800049835A833091CF0189819A81311119C0F0
:10069000662399F0222389F00E94CE08182F682F34
:1006A00089819A810E94AA0869817A81812F0E949A
:1006B000DA0F2596E3E00C9465290E94BC08182FF8
:1006C000F3CF0E94CE0869817A81F1CFFC01262FF9
:1006D000408151816281738184810E943A0308952F
:1006E00081E00895CF93DF93EC0160E00E94660300
:1006F000BE010E943703DF91CF91089508950E94B3
:10070000A3070E947E032FEF84E39CE021508040EA
:100710009040E1F700C0000008950E947F030E940E
:10072000C42108950E947F030E94D52108950F934C
:100730001F93CF93DF938C0161E00E946603EC016D
:10074000B8010E94A018811106C080E0DF91CF910E
:100750001F910F910895B801CE010E9433038823A1
:10076000A1F3B801CE010E94F21E882371F3B801F3
:10077000CE010E94111A882341F3B801CE010E94D4
:10078000641E882311F3B801CE010E94B517882397
:10079000E1F2B801CE010E94361F8823B1F2F801C0
:1007A0008281882361F0C330FCE7DF07E9F058F469
:1007B000C115ECE7DE07A9F0C130DC47B9F0C8018C
:1007C0000E942F03C3CFCB358CE7D807A9F0CC35D7
:1007D000ECE7DE0771F0CA35DC4789F70E94210D8E
:1007E000EECF0E948D03B1CF0E94290D0E9492038B
:1007F000ACCF0E94170DE3CF0E94250DE0CF0E94E1
:10080000F6200E94370408950E943B040E94FB20BA
:100810000895982F92959F7011F0892F94E0282FBA
:100820002695269511F09E5F822F869509F09F5F91
:10083000892F0895089581E008950895CF93DF9357
:10084000D82F0E941B04C82F882319F08D2F0E94D7
:100850001D048C2FDF91CF9108950895CF93C82F59
:100860000E941A048C2F0E941E04CF91089580E0EC
:100870000E942E0408950E94891F0E942E0408954C
:10088000CF930E94891FC82F8091CA018C1779F0DD
:10089000C093CA010E9485216093CB017093CC0163
:1008A0008093CD019093CE018C2F0E942E04CF9186
:1008B0000895ABE0B0E0EFE5F4E00C944A294F83F3
:1008C000588769877A878B8761110E94620C1E8224
:1008D0001D8285E0FE013796DE01119601900D9292
:1008E0008A95E1F78C819D81892B61F449815A8138
:1008F0006B817C818D819E810E948A0B2B96E2E028
:100900000C94662989819A8189238F3F79F3CE01DE
:1009100001960E9470038111E9CFF0CFFC01808124
:1009200091810E94FB080895662329F00E94D3124A
:100930000E94A61308950E942D13FACFCF93C82FBB
:100940008823B9F08CEF8C0F813AA8F46C2F80913A
:100950000001909101010E941C20882329F08C2F16
:100960000E94220C0E94830C8C2F0E941A0C0E9461
:10097000830CCF91089580E28C0F883048F4C770C3
:1009800081E001C0880FCA95EAF70E94450CEFCFBD
:10099000EBE5EC0FE33040F4F0E0E75AFE4F8081E6
:1009A00090E00E94BE1FE5CFE8E5EC0FEB3150F47C
:1009B000F0E0EE0FFF1FED5DFE4F808191810E9400
:1009C000E31FD7CF83E38C0F833198F661E08C2F40
:1009D0000E949404CECF882381F19CEF980F913A26
:1009E00028F40E94220C0E94830C089590E2980F34
:1009F000983050F4877091E001C0990F8A95EAF71A
:100A0000892F0E944B0CEFCF9BE5980F933028F471
:100A100090E080E00E94BE1F089598E5980F9B31FA
:100A200028F490E080E00E94E31F089593E3980F7C
:100A3000933118F460E00E94940408951F93CF93BB
:100A4000DF93182FEB010E949E04209739F4812F29
:100A50000E94EB04DF91CF911F9108958FE99FE0F1
:100A60000197F1F700C000002197EFCF6AE070E036
:100A7000893311F460E570E00E941E050895882313
:100A800021F00E94450C0E94830C0895882321F0D8
:100A90000E944B0C0E94830C0895B0E0A0E0E3E5B7
:100AA000F5E00C9443296C01D62FC72FFC0112816D
:100AB000058102950F700E943B0CE82E8823E9F017
:100AC000E12E1123D1F08C2F807F803451F080E211
:100AD0008D0F8830F8F0011104C08C2F807E803299
:100AE000C9F08091B30282FF15C082E00E94E60C3B
:100AF0000E943B0C91E0E82EE926BC2EB2949FE0C8
:100B0000B922FBE0FB15B8F1EB2DF0E0EF52F64D0A
:100B10000C942D29E12CF1CF0C2F0F70C07F11F018
:100B20000295007F112399F0002359F080E28D0F88
:100B3000883010F0D11107C0802F0E94450C0E9410
:100B4000830C8D2F62C0802F0E94550CF8CF8D2F03
:100B50000E94EB04002379F080E28D0F883010F0C2
:100B6000D11104C0802F0E944B0C03C0802F0E9423
:100B70005B0C0E94830CEB2DE850FF0B349720F4A4
:100B80000E94891F0E942E04EE2089F00E94370CDB
:100B900080FD0DC0F60112820E94310C0E941E08D9
:100BA000C6010E9463070E94310C0E942A08CDB73B
:100BB000DEB7E9E00C945F292C2F2F70F22EC07F56
:100BC000C03219F0F29480EFF822DD2381F0D130A9
:100BD00009F449C0112309F451C0002309F448C0A5
:100BE000F601858180FFADCF8F70858341C08091F4
:100BF000B30282FD15C0112359F0FF2029F08F2D7B
:100C00000E94450C0E94830C80E00E949E04B3CF9A
:100C100080E00E94EB04FF2009F4ADCF8F2DA3CF1D
:100C2000112381F0011106C00E94650C8F290E94DA
:100C30003F05A1CF0130C1F70E94650C8F290E94AA
:100C40006C0C99CF011106C00E94790C8F2D0E9467
:100C5000460591CF013009F48ECF8F2D0E944605B5
:100C60000E94790C88CF112329F0063008F083CF39
:100C70008F2DDDCF053008F07ECFE8CF002331F394
:100C8000D93309F000C1FFEF27EE33E0F1502040E7
:100C90003040E1F700C000008D2F0E94EB046BCFC5
:100CA0008C2F86958695837069F0813009F063CF2B
:100CB0008D2F9C2F9370111102C080E090E00E9454
:100CC000E31F59CF8D2F9C2F9370111102C080E02C
:100CD00090E00E94BE1F4FCF612F8D2F0E94940481
:100CE0004ACF8C2F837079F5111145CF4D2F429546
:100CF00046954770440F440F8D2F8F70042E01C00E
:100D0000880F0A94EAF72D2F2071D4FF07C02FE037
:100D100030E001C0220F4A95EAF72095C695C695A6
:100D2000C370822BC23049F058F4C13019F00E94D0
:100D3000FD0721CF0E94F7071ECF0E9403081BCF9B
:100D40000E94F40718CF8695112311F08C2F817023
:100D5000882309F410CF4D2F429546954770440FD4
:100D6000440F8D2F8F70042E01C0880F0A94EAF76C
:100D70002D2F2071D4FF07C02FE030E001C0220FDB
:100D80004A95EAF72095C695C695C370822BC23066
:100D900049F058F4C13019F00E944908ECCE0E9485
:100DA0004308E9CE0E944F08E6CE0E940C08E3CE2D
:100DB000CF70112329F08C2F0E941E088D2F37CF62
:100DC0008D2F0E9446058C2F0E942A08D4CED23F38
:100DD00041F160F4D03FB9F0D13F81F0112309F423
:100DE00046C00111AECE8C2F8F711FC0D33F01F1D1
:100DF000D43FA1F78091B30282FD24C08C2F8F7164
:100E0000112311F312C0112341F0053008F0B3CEC5
:100E10008C2F8F710E943708AECE063008F0ABCE13
:100E2000F7CF8C2F8F711111CFCF0E941E08A3CE48
:100E3000112329F08C2F8F710E9415089CCE0E94DF
:100E4000110899CE112349F0CF718C2F0E941E08F2
:100E500063E08C2F0E94C80C8ECE81E00E94E60CCD
:100E6000023008F488CE82E00E94E60C84CE002393
:100E700079F0D93341F49FEFE7EEF3E09150E04091
:100E8000F040E1F707CF8FE39CE90197F1F702CF3C
:100E90008C2F8F7199CF0F931F93CF93DF93EC011A
:100EA000688179818A810E9406098C010E94550817
:100EB0000E94F307B801CE010E944D05DF91CF914A
:100EC0001F910F910895CF93DF93EC018B819C814B
:100ED000892B29F08881998189238F3F51F4DF91F3
:100EE000CF910895CE010E944B07CE010E9472035C
:100EF000F6CFCE010E9497038111F4CF0E943B0CE4
:100F0000882369F38A81882351F38091B30282FF99
:100F1000E6CF82E00E94E60CE2CF90E080E00E9403
:100F2000BE1F90E080E00E94E31F0E94620C0E94BE
:100F3000830C0E94C2130E94A61308950E942A0CDB
:100F40000E948D0708950E94520C0E949E070895EA
:100F500092959F70963091F058F4925F9F70923006
:100F600058F4803F19F030F4883E30F481E0089561
:100F70009A5FF4CF843FD1F380E00895883EB0F3C8
:100F8000813FD1F7F3CFFC0183819481892B29F034
:100F90008081918189238F3F11F480E008958081C1
:100FA00091810E94FB080E94A8070895A5E0B0E087
:100FB000ECEDF7E00C944A292596E2E00C946629C2
:100FC000A6E0B0E0E6EEF7E00C944A292696E2E0CF
:100FD0000C94662908950E94EA0708950E94EB0781
:100FE0008093DA01089508950E94EE070895909184
:100FF000DA01892B0E94EE0708959091DA01892386
:101000000E94EE0708959091DA0189270E94EE0769
:1010100008950E94F30208950E9409088093D9015F
:10102000089580E00E940C08089591E001C0990F96
:101030008A95EAF7892F0E940C08089521E030E094
:1010400001C0220F8A95EAF78091D901822B0E9474
:101050000C08089521E030E001C0220F8A95EAF7DC
:1010600020958091D90182230E940C08089521E0E7
:1010700030E001C0220F8A95EAF78091D9018227DA
:101080000E940C0808959091D901892B0E940C08A8
:1010900008959091D90189230E940C080895909198
:1010A000D90189270E940C0808950895262F2770DA
:1010B00091E001C0990F2A95EAF723E076956795AC
:1010C0002A95E1F7FB01EE0FFF1FE60FF71FE40F74
:1010D000F51F50E040E0682F70E08191DF0111972B
:1010E0009B01042E02C0369527950A94E2F72170E1
:1010F00021952827292328272C934F5F5F4F4330C2
:10110000510559F70895A82FA77023E09695879564
:101110002A95E1F7FC01EE0FFF1FE80FF91FE60F1C
:10112000F71F50E040E080E0219130E00A2E02C03D
:10113000369527950A94E2F721703327042E01C0D3
:10114000220F0A94EAF7822B4F5F5F4F433051051D
:1011500059F70895262F943070F4853060F4682F85
:1011600070E085E0989F600D711D112440ED51E005
:10117000822F0E9456080895292F943068F48530F4
:1011800058F490E060ED71E035E0239F800D911DF3
:1011900011240E948308089580E00895CF92DF9281
:1011A000FF920F931F93CF93DF936C010091D901AE
:1011B0008091DA01082BC3E0D0E010E0FC2EC801DA
:1011C0000C2E02C0959587950A94E2F780FD0CC01D
:1011D0002197A0F7F12C8F2DDF91CF911F910F91C7
:1011E000FF90DF90CF900895B6018C2F0E94E60FFC
:1011F000019771F3F0CFCF93DF93EC010E94CE08FB
:10120000BE010E94E60FDF91CF9108951F93CF9307
:10121000DF93EB019091CF01992339F0CB010E942C
:10122000FB08DF91CF911F910895882369F0CB01CE
:101230000E94CE08182F682FCE010E94AA08BE0176
:10124000812F0E94E60FEDCFCB010E94BC08182F22
:10125000F6CFE1E0F0E0DF0102C0AA0FBB1F6A9504
:10126000E2F7BD01DF0102C0AA0FBB1F4A95E2F7FA
:101270006A2B01C0EE0F2A95EAF7962F9823961352
:1012800002C08E2B0895E0958E230895242F462FBB
:10129000682F8091D9010E9429090E940C080895A5
:1012A0001F93CF93DF93C091DB0116E08091DC01A7
:1012B0008C1304C0DF91CF911F910895D0E01C9F43
:1012C000F0011D9FF00D1124E352FE4F408151812A
:1012D00062817381848195810E94E0072196C770A5
:1012E000E5CF40910D0250910E0260910F02709176
:1012F000100280911102909112020E94E00708955D
:101300002091DB019091DC0156E0291302C080E0BE
:10131000089530E0529FF001539FF00D1124E352E5
:10132000FE4F7181761306C07081781303C07281FD
:10133000741304C02F5F3F4F2770E7CF81E00895FB
:101340001F93CF93DF9380911202807F09F04BC0EF
:1013500080910F02882309F446C08091DB01C0917F
:10136000DC0140910D0250910E02609110027091CB
:101370001102D42FD52316E0C817A9F190E061150A
:101380007105A9F1DF3F99F1189FF001199FF00D48
:101390001124DF01A352BE4F11962C9111972513F2
:1013A00026C02C91241323C012962C911297211140
:1013B0001EC013962D913C91261B370B283C3105FE
:1013C000B0F4809112028F70806180931202EE510E
:1013D000FE4F80818F70806180838DE092E00E945B
:1013E00063070E945009DF91CF911F9108950196E4
:1013F0008770C2CFA1E1B0E0E0E0FAE00C944029B0
:101400008C0185E0F801DE011D9601900D928A9510
:10141000E1F7F801F2808DE0A82E82E0B82E40912D
:101420001002509111024115510509F45AC19091D1
:101430000D0220910E02892F82238F3F09F451C1A2
:10144000C080D18083809480E0900F02B401641B3F
:10145000750BEE2009F4F6C080911202382F307F10
:10146000683C710508F0AFC031117AC0EF2C2D1126
:1014700016C09C1114C0F11012C08F70806180934F
:1014800012020E947109C5010E9463078091120235
:10149000F80185838E2D6196ECE00C945C29811413
:1014A0009104C9F18C2D8D218F3FA9F181E08F2509
:1014B00080FF05C04F2D6D2D8C2D0E948009811459
:1014C000910459F18C2D8D218F3F39F181E08F25C9
:1014D000F82FF170BF2E80FF39C04F2D6D2D8C2D50
:1014E0000E948009A82E811131C0CD86DE868D85AF
:1014F0009E850E94FB08292F22952F70243078F4B6
:101500009F702230A8F09923B9F0F8019581907F5F
:1015100099F4EA2CBFCF80E0CBCF80E0D9CF2A5F0F
:101520002F70223068F0C8010E946307AB2CF1CF06
:10153000992311F0882369F3805E883050F3F3CF4C
:10154000803F38F3815F833070F7E3CFFF2009F4E9
:10155000A1CF80911202816080931202E12C9ACF78
:101560002D1105C09C1103C0FF2009F486C0C801DD
:101570000E94C307882319F1FF2009F1809112020C
:10158000803270F020910D0230910E0238872F8347
:1015900019869B868A868C87CE0107960E946307F0
:1015A00086E0F801ADE0B2E001900D928A95E1F796
:1015B0000E94A0090E947109EE24E3946BCFC80138
:1015C0000E946307F9CF311114C0782D998A888A57
:1015D000A6016F2D89890E94D6078DE092E00E94B6
:1015E000630786E0F50111928A95E9F70E94710977
:1015F000B5CF2D110EC09C110CC0F1100AC085830F
:10160000C8010E94630786E0F50111928A95E9F707
:1016100041CFC8010E94C307882389F2FF2079F2D5
:1016200080911202803208F4BBCF20910D023091DC
:101630000E023A8329831B829D828C828E83CE0187
:101640000196ACCF683C710508F03DC0EF2CFF203F
:1016500009F4B5CF2D1129C09C1127C08091120229
:1016600080FD1AC0982F907FB9F08583903F31F0AC
:10167000982F907F905F8F70892B8583C8010E947F
:10168000630786E0F801ADE0B2E001900D928A9523
:10169000E1F70E947109FECE86E0F801ADE0B2E00C
:1016A00001900D928A95E1F7F5CEC8010E94C3071B
:1016B000811176CF80911202816080931202C8015D
:1016C0000E946307E7CE782D998A888AA6016F2D3C
:1016D00089890E94D60786E0F50111928A95E9F77B
:1016E000D8CFFF2009F46BCFC8010E94C307E82EB2
:1016F000882309F464CF86E0F801ADE0B2E0019000
:101700000D928A95E1F78DE092E00E948E040E948E
:10171000A009BFCFACE0B0E0E0E9FBE00C944929C0
:101720004F83588769877A878B879C87CE01079676
:101730000E94FA098823B1F08A859B85892B39F0AC
:101740004F815885842F85238F3F09F06CC016E0A8
:101750008091DB019091DC01891343C02C96E3E07A
:101760000C94652986E0FE013796DE011196019002
:101770000D928A95E1F78A859B85892B41F38F81AC
:10178000988589238F3F19F32091DC0130E0C9014E
:101790000196877099274091DB014817190671F46B
:1017A0000E94A3071092DC011092DB0186E0EDE0BD
:1017B000F2E0DF011D928A95E9F7C9CF96E0929F8A
:1017C000D001939FB00D1124A352BE4FFE0131965C
:1017D00001900D929A95E1F78093DC010E945009E7
:1017E000B6CF819FC001112483529E4F0E94FA09F7
:1017F000882309F4B3CFE091DB011E9FF00111248F
:10180000E352FE4F408151816281738184819581D1
:101810000E94E0078091DB0190E001968770992794
:101820008093DB0195CF69857A858B859C850E94A5
:10183000E0078DCF682F80910001909101010E94F7
:101840009C200895682F80910001909101010E94D1
:10185000AA20089580910001909101010E94B82072
:101860000895809133028595859585950895809199
:1018700033028770089590913302977081E009F4E4
:1018800080E0089580915602089590915602892B28
:1018900080935602089580959091560298239093D4
:1018A0005602089510925602089590915502892B80
:1018B00080935502089580959091550298239093B6
:1018C00055020895109255020895809134020895AA
:1018D00008950E94680C08959091B30292FF08C089
:1018E00090913402981721F0809334020E94690C81
:1018F000089580913402882329F01092340280E008
:101900000E94690C0895CF93DF93E0910001F0915C
:101910000101809156028083E0910001F091010164
:10192000808190915502892B808390913402992374
:1019300081F0E0910001F09101018081892B808389
:1019400080910001909101010E94082081110E9464
:10195000790CC0910001D091010140E250E063E1B7
:1019600072E0CE010E947129892B59F080E2FE01BC
:10197000A3E1B2E001900D928A95E1F7CE010E94B9
:10198000961FDF91CF91089508950E94C40C089589
:101990009091B30292FF11C098E0899F90011124A9
:1019A000622B609333020E941E088091330285955A
:1019B000859585950E94C50C08950E941E0808957E
:1019C0001092330280E00E94C50C0895909133027A
:1019D0008095892380933302282F277091F4282F34
:1019E000082E000C330B9217130659F09091B30296
:1019F00092FF07C08595859585950E942A080E94CB
:101A0000E00C08959091B30292FB222720F9281749
:101A100069F080FB92F99093B3028091B2029091A9
:101A2000B3020E944B0D82E00E94E60C0895809163
:101A3000B30282FB882780F991E089270E94020D7A
:101A4000089581E00E94020D089580E00E94020D39
:101A500008956FEF7FEF90E080E00E94B92908952C
:101A600090E080E00E949529873E9E4F19F40E94E5
:101A70003818089580E0089582E090E00E94872958
:101A8000089583E090E00E948729089584E090E023
:101A90000E9495290895BC0184E090E00E94B92934
:101AA0000895AB01BC018FE090E00E94AD2908953C
:101AB000AB01BC0183E190E00E94AD29089560E094
:101AC00070E0CB010E94580D089560E070E0CB01FA
:101AD0000E94510D0E945F0D089567EE7EEF90E029
:101AE00080E00E94B92960E082E090E00E949B299A
:101AF00060E083E090E00E949B291092DA0160E0B0
:101B000074E184E090E00E94B92960E086E090E012
:101B10000E949B296FEF87E090E00E949B2940E0A4
:101B200050E0BA0188E090E00E94AD2960E08DE0CD
:101B300090E00E949B2940E050E0BA0188E190E0EB
:101B40000E94AD2960E087E190E00E949B2940E07F
:101B500050E0BA018CE190E00E94AD2970E060E0B5
:101B600080E290E00E94B92940E050E0BA0188E1AB
:101B700090E00E94AD2980E00E9451180E948018D8
:101B80000E94650D08950E946D0D0895682F8EE0E6
:101B900090E00E949B290895A5E0B0E0E2EDFDE011
:101BA0000C9448290E9479218C01809157029091D0
:101BB000580280179107A1F08FEF89838A831B82D7
:101BC0000E9479218160782F9D838C8349815A817D
:101BD0006B818D810E945904109358020093570223
:101BE0002596E4E00C9464290E94852160936502A7
:101BF000709366028093670290936802609361021B
:101C000070936202809363029093640208950E942D
:101C100085216093650270936602809367029093BA
:101C2000680260935D0270935E0280935F029093FE
:101C300060020895089508950E941B0E08950E9461
:101C4000ED02089581E0089580ED90E10E947F1FEC
:101C50000E941A0E0E941C0E08950E94220E0895E2
:101C60000E942D0E0895089508950E94330E0E943B
:101C7000340E08950E94EC100E942D0408950E94D5
:101C800070210E9490180E94BA1B0E94B0110E94FD
:101C90003A0E0E946B170E941F0E0895A5E0B0E057
:101CA000E4E5FEE00C9442290E94220E81110FC04F
:101CB0000E94CC0D0E942B1C81110E94070E0E94D5
:101CC000E4130E9440042596EAE00C945E290E94E9
:101CD000C61189E5A82E82E0B82E750110E0F70143
:101CE00001917F01812F0E940E111F5F143009F4B2
:101CF00040C00817A1F38091690281FD0E94141170
:101D00000E94300EC82E10E0812F0E940E11082F65
:101D1000F50181915F01081731F1D02ED826F12C01
:101D2000EE24E3948D2D8E21B1F0CC20A1F0F98228
:101D30001A8391E0802F8E2109F490E09B830E940A
:101D400079218160782F9D838C8349815A816B81B1
:101D50008D810E945904F394EE0CF5E0FF12E2CF5E
:101D6000F501319700831F5F143071F60E94F40D66
:101D7000A1CF0813C0CF9CCF1F93CF93DF930E94B6
:101D8000EB0FEC01C11580E5D807F0F5C11580E433
:101D9000D80708F09CC0C03ED10520F5CD3CD10548
:101DA00008F082C0C83AD10578F4C53AD10508F0E8
:101DB00073C0C130D10519F1209709F1C430D105A4
:101DC000F0F4D0E0C0E01BC0C33CD105D0F7C85A46
:101DD000D0E0CC0FDD1FC45ADE4F0990D881C02D52
:101DE000D4640DC0C11580E2D80708F0D1C0C11578
:101DF00081E0D80708F05AC0C83ED10510F7CE01DF
:101E0000DF91CF911F910895C03682E5D80718F56C
:101E1000C03482E5D80708F06BC0C03282E5D8072D
:101E200008F05FC0C11582E5D80708F497C02C2FD1
:101E30002695269580E2289F900111248C2F83708F
:101E4000C1E0D0E002C0CC0FDD1F8A95E2F7C22BC3
:101E5000D32BDD68D4CFC03A82E5D80760F4C03810
:101E600082E5D80708F459C0CF71D0E0DC2FCC2729
:101E7000C46FD06AC4CFC03C82E5D80708F462C002
:101E8000C03E82E5D80708F09CCFDC2FCC27CC27BA
:101E9000DF71C06FD06AB3CFC55AD0E0CE56DE4FE7
:101EA000C881D0E0D064ABCFD065A9CF8D2F0E9480
:101EB0008D10182FCE0199270E94EB0FC12FD0E073
:101EC000DC2FCC27CC27DF71C82BD92B98CFCE01A4
:101ED00099270E94EB0FCC27DF70C82BD92BD06A33
:101EE0008ECFCF71D0E0DC2FCC27C16FD06A87CFE7
:101EF0002C2F26952695277080E2289F900111248B
:101F00008C2F8370C1E0D0E002C0CC0FDD1F8A951A
:101F1000E2F7C22BD32BDC6872CF2C2F26952695A7
:101F2000277080E2289F900111248C2F8370C1E0DC
:101F3000D0E002C0CC0FDD1F8A95E2F7C22BD32B75
:101F4000DA685DCF8C2F8F710E948D10C82FD0E082
:101F5000DC2FCC27CC27DF71D06251CF8C2F8F7133
:101F60000E948D1055E0D695C7955A95E1F7CF7030
:101F7000D0E0DC2FCC27282F30E084FF05C044E0E0
:101F8000220F331F4A95E1F7C22BD32BD06937CFED
:101F90008D2F8F710E948D10182FCE0199270E94CE
:101FA000EB0FC12FD0E0DC2FCC27CC27DF71C82B63
:101FB000D92BD2CF462F743030F4653020F4672F00
:101FC0000E947C1D089590E080E008950E94DA0F41
:101FD0000E94BC0E089582389105B9F1B0F48133A6
:101FE000910509F47DC048F48932910509F46DC06A
:101FF0008A32910509F47BC008958533910509F46F
:102000005FC08933910509F10895833E9105D9F1A7
:1020100038F4803E910529F1823E910579F10895C9
:10202000863E9105D9F1873E910509F43EC0843E74
:10203000910541F52091B30221FF24C08091B202A5
:1020400084FD19C087EE90E008952091B2022370BC
:1020500009F05AC02091B30223FF14C089E290E036
:1020600008952091B20220FD38C03091B30230FFB4
:1020700009C024FF43C090E080E008952091B2029F
:1020800022FDF7CF08952091B20222FD3AC030918F
:10209000B30230FD39C024FFF5CFEDCF2091B2025D
:1020A00023FFF0CF24FDE7CFCDCF2091B20223FD57
:1020B0002EC03091B30231FFEECF84EE90E0089550
:1020C0002091B20225FFDECFC9CF2091B20225FDBB
:1020D00021C02091B30223FFD5CF89E390E0D2CF76
:1020E0002091B20226FFCECF8AE290E0089520919F
:1020F000B20226FFC7CF81E390E0089583EE90E01F
:10210000089582EE90E0089580EE90E0089586EEC6
:1021100090E0089585E390E008959091B20292FFD7
:1021200006C0282F28712830F9F4877F846093FF38
:1021300006C0282F28712831F1F4877E8461209110
:10214000B30220FF06C0382F38713830D9F4877FAA
:10215000816021FF06C0282F28712831D1F4877EA5
:10216000816194FD877E0895282F24712430F9F62B
:102170008B7F8860DCCF282F2471243101F78B7E80
:102180008861DDCF382F3171313019F78E7F88604B
:10219000E0CF282F2171213121F78E7E8861E1CF98
:1021A00080E008950E94290D08950E94C6118FE3D2
:1021B0009CE90197F1F700C000000E94C61180E081
:1021C0000E940E1180FF04C00E94D2100E94C42100
:1021D00008950E94D51008950E94300D811102C00B
:1021E0000E94C30D0E943C0D809369020E94460D1F
:1021F0009093B3028093B2020E94E9100E94410DB5
:102200000E94F4078091D9010E9409080895089559
:102210000E94071108950E94E6020895E82FF0E059
:10222000E854FD4F80810895089580EA8A95F1F77A
:10223000089500C008950E9415110895F894E82F9C
:10224000E295EF70F0E031A1282F2F7081E090E04F
:1022500001C0880F2A95EAF7982F9095932391A3B0
:1022600092A1892B82A378940895CF93DF9381E97B
:102270000E941E1186E60E941E1184E90E941E1112
:1022800080E90E941E11C5E9D1E089918F3F11F0CC
:102290000E941E1181E0CA39D807B9F7DF91CF91AA
:1022A0000895B0E0A0E0E7E5F1E10C944429EC01E9
:1022B000D62E062F10E0C80186569E4F7C01FC01E9
:1022C00080818F3F09F445C0F894E82FE295EF70C4
:1022D000F0E091A18F7021E030E001C0220F8A95DB
:1022E000EAF7892F822B81A382A12095282322A39C
:1022F00078940E941911E5E9F1E04AE951E031E0F2
:10230000C12C21912F3F51F1A22FA295AF70B0E0C7
:1023100090968C9190E02F7002C0959587952A95A4
:10232000E2F780FD1BC0832FC82A330F4E175F07CB
:1023300041F7F70180818F3F11F00E941E1161E08B
:10234000C11001C060E08D2D0E941B11C00FD11F74
:10235000C882CDB7DEB7E8E00C94602980E0E4CF16
:102360000E94351184E0E8EBF2E0DF01982F1D9226
:102370009A95E9F7E4EBF2E0DF011D928A95E9F71F
:1023800084E00E9403120E9408110895A4E0B0E0C6
:10239000ECECF1E10C94492919821A821B821C820F
:1023A00010E0612FCE0101960E9451111F5F143081
:1023B000C1F744E050E0BE016F5F7F4F84EB92E0D5
:1023C0000E94712921E0009709F420E0892B61F037
:1023D00089819A81AB81BC818093B4029093B502CC
:1023E000A093B602B093B70244E068EB72E084EBCE
:1023F00092E00E940412182F0E940B11812F249644
:10240000E3E00C9465290895CF92DF92EF92FF925A
:102410000F931F93CF936C017B01042F222349F06C
:1024200081E080936C020E94792190936B028093EB
:102430006A02C0916C02C1110AC0C0E08C2FCF911A
:102440001F910F91FF90EF90DF90CF9008958091B2
:102450006A0290916B020E949121059770F310E03F
:10246000A801B601C7010E947129892B41F0A8017A
:10247000B601C7010E947E2910926C02DFCFC0E036
:10248000FBCF0E945F230E943F0E0E946C230895A1
:102490000E9471230E944E0E0E948B2308950E9479
:1024A00012210E9445230E94240E0E9441120E9484
:1024B00048120E94350EFBCF8091730280FF0DC041
:1024C0006091070170E0660F771F6038710570F545
:1024D0006115710569F1862F089581FF07C060912C
:1024E000070184E0689FB0011124EFCF60910701DC
:1024F00082FD0AC0809172028823A9F02091060112
:1025000060910701821710F088E0ECCF869FC00130
:10251000112433E0880F991F3A95E1F7622F70E09C
:102520000E941929D2CF68E070E0D5CF8FE70895D7
:1025300081E008958091730280FF0CC060910301D7
:1025400070E075956795759567956115710549F109
:10255000862F089581FF06C06091030170E0759594
:102560006795F3CF6091030182FD0BC090917102DA
:102570009923A1F06091020180910301961738F030
:10258000682F70E06038710500F38FE70895899F28
:10259000C001112470E00E941929F4CF61E070E0BD
:1025A000D7CF81E008958D3C31F40E945C12819573
:1025B0008093770208958E3C19F40E945C12F8CF44
:1025C0008F3C31F40E945C128195809376020895CD
:1025D000803D19F40E945C12F8CF893D29F40E94D5
:1025E0009A128093780208958A3D21F40E949A12EB
:1025F0008195F7CF8B3D31F40E949A12819580939B
:10260000790208958C3D19F40E949A12F8CF9FE246
:10261000980F983070F4815D990B21E030E001C093
:10262000220F8A95EAF780917502822B80937502BA
:1026300008958D3D31F4809173028160809373021F
:1026400008958E3D21F4809173028260F7CF8F3D13
:10265000B9F7809173028460F1CF409176028D3C8E
:1026600059F48091770287FF0DC0109277024111D3
:102670000BC01092720208C08E3C81F480917702E8
:1026800018169CF3442381F080917802909179028E
:10269000892B09F05AC01092710208958F3C49F4B9
:1026A00047FFF0CF10927602809177028111ECCF34
:1026B000E0CF803D19F41416ACF3E4CF909178028A
:1026C000893D29F41916F4F610927802DBCF8A3D81
:1026D00019F497FFD7CFF8CF909179028B3D29F469
:1026E00097FFD0CF10927902CDCF8C3D19F41916F7
:1026F000CCF3C8CF9FE2980F983090F4815D990B8E
:1027000021E030E0B90102C0660F771F8A95E2F739
:10271000CB01809590917502892380937502B2CF89
:102720008D3D31F4809173028E7F80937302AACF26
:102730008E3D21F4809173028D7FF7CF8F3D09F09C
:10274000A1CF809173028B7FF0CF08950E947921F1
:102750009C019091760280917702982B21F0309322
:10276000700220936F029091780280917902982BE9
:1027700021F030936E0220936D0284E792E00E9474
:10278000B01F089586E0E4E7F2E0DF011D928A952C
:10279000E9F710927202109271021092730208957A
:1027A000FC01828181110EC0838181110BC0848163
:1027B000811108C091E08581811101C090E0892FCD
:1027C0008170089581E0FCCFA6E0B0E0EAEEF3E18D
:1027D0000C94492986E0E4E7F2E0DE0111960190CD
:1027E0000D928A95E1F7109276021092770210927C
:1027F0007802109279028B819C81892B89F08091DB
:102800006F02909170020E949121AC01909172022E
:102810009923C9F1809108018417150608F440C076
:102820008D819E81892B91F080916D0290916E0235
:102830000E949121AC0190917102992309F471C019
:10284000809104018417150608F479C0BE016F5FFA
:102850007F4F84E792E00E94CA20811105C084E77F
:1028600092E00E94D01381110E94A61386E0FE011F
:102870003196A4E7B2E001900D928A95E1F7269691
:10288000E3E00C946529209109018AE0289F9001DA
:1028900011242417350720F69F5F9093720202C01F
:1028A0009F3FD1F71B81112359F00E945C129FEFCB
:1028B00011160CF491E0899F802D112480937602EB
:1028C0001C81112359F00E945C129FEF11160CF429
:1028D00091E0899F802D11248093770230917602B8
:1028E000332309F49DCF20917702222309F498CF56
:1028F00045EB3403C0011124992359F090937602DB
:1029000045EB240390011124332339F030937702EF
:1029100087CF81E080937602F3CF81E080937702C6
:102920007FCF209105018AE0289F90011124241770
:10293000350708F08BCF9F5F9093710202C09F3FD5
:10294000D1F71D81112359F00E949A129FEF1116A1
:102950000CF491E0899F802D1124809378021E81D0
:10296000112359F00E949A129FEF11160CF491E076
:10297000899F802D1124809379023091780233232E
:1029800009F464CF20917902222309F45FCF45EB4B
:102990003403C0011124992359F09093780245EB38
:1029A000240390011124332339F0309379024ECF60
:1029B00081E080937802F3CF81E08093790246CF63
:1029C000EF92FF920F931F93CF93DF93EB01E82FCA
:1029D000D1110EC0442321F0F0E0E45BFE4FE491FE
:1029E0006E2F7E2F8E2FCDB7DEB7E6E00C946229D6
:1029F0000D2F10E0282F30E0442329F0245B3E4FB8
:102A0000F901249130E0F6E0CF9FC0011124EFEFEF
:102A1000F0E0BF010E940529AB018C2F90E0880FE8
:102A2000991FA5E5A49FB001A59F700D1124861BD9
:102A3000970B982F990F980FBF01601B710B629F26
:102A4000D001639FB00D729FB00D11248B2F9D9FFD
:102A5000B0011124672F7727EF01C61BD70BBE01EA
:102A6000629FE001639FD00D729FD00D11247F0102
:102A7000E91AF108E09EB001E19E700DF09E700D24
:102A80001124672F7727E61BF70BE29F8001E39F56
:102A9000100DF29F100D1124E12F722F42305105BD
:102AA00099F048F44115510569F04130510581F024
:102AB000EB2F8D2F07C04430510569F080F0463070
:102AC0005105B1F76E2F8FCFE22F7B2F812FFACFD9
:102AD000E22F7D2FF7CFEB2F822F712FF3CF7B2F9C
:102AE000822FED2FEFCF41E00E94E01408950E9465
:102AF00073150895CF93DF93762FE901682F842F04
:102B00000E947715798368838A83DF91CF91089536
:102B10008091BC02982F9E7F39F48091BC02817015
:102B200082608093BC0208958430B8F7089588E0ED
:102B300090E00E948F290895CF92DF92EF92FF924A
:102B40006B017C010E948815B701A60188E090E026
:102B50000E94AD29FF90EF90DF90CF900895609193
:102B6000BC027091BD028091BE029091BF020E9492
:102B70009C150895ECEBF2E083E0808311828FEFE7
:102B800082838383148260817181828193810E9418
:102B90009C1508958091BC0280FF02C0869508951F
:102BA00080E008958091BC02817008959091C002E8
:102BB000933018F49F5F9093C002882351F0609186
:102BC000BC027091BD028091BE029091BF020E9432
:102BD0009C15089581E00E94D61508959091C00239
:102BE000992319F091509093C002882351F060917D
:102BF000BC027091BD028091BE029091BF020E9402
:102C00009C15089581E00E94EE1508958091C00200
:102C100008958093C002662351F06091BC027091C8
:102C2000BD028091BE029091BF020E949C15089542
:102C300060E00E94091608958091BD020895809178
:102C4000BE0208958091BF02089570E00E940C18A2
:102C5000089560910B018091BC0280FF0BC08091B0
:102C60000A0123E0829FC00111248F539D4F0E94CF
:102C70002516089580910C0190910D0123E0829F0B
:102C8000F0011124EF53FD4F891748F7118210828C
:102C900012828F5F3396F8CFECEBF2E080818E7F6B
:102CA000808360817181828193810E949C150E9442
:102CB00029160895ECEBF2E080818E7F80830E94DC
:102CC000291608959091BC0290FF0EC090910C01BE
:102CD00020910D0133E0939FF0011124EF53FD4F3C
:102CE000921718F00E942916089581836083428309
:102CF0009F5F3396F5CFA3E0B0E0E1E8F6E10C94F6
:102D00004629F82E062F142FE22E8091BC0280FF58
:102D100028C0E82FE695F0E0E256FE4F90819093B0
:102D20007B028E7F823059F49E012F5F3F4F8F2DA3
:102D30000E947A154B8169818A810E946216F09205
:102D4000BD020093BE021093BF02EE2051F06091CD
:102D5000BC027091BD028091BE029091BF020E94A0
:102D60009C152396E6E00C946229ECEBF2E091814D
:102D7000282F4381628188E0890F0E947B16089585
:102D800081E00E94B5160895ECEBF2E09181282FC6
:102D90004381628188EF890F0E947B16089581E04C
:102DA0000E94C4160895ECEBF2E0628121E1620F0B
:102DB00008F46FEF282F438181810E947B160895CC
:102DC00081E00E94D3160895ECEBF2E0628121E1EC
:102DD000621B08F460E0282F438181810E947B16EA
:102DE000089581E00E94E4160895ECEBF2E043813F
:102DF00021E1420F08F44FEF282F628181810E9468
:102E00007B16089581E00E94F5160895ECEBF2E040
:102E1000438121E1421B08F440E0282F6281818137
:102E20000E947B16089581E00E940617089520E015
:102E30000E947B1608958091BC0280FF18C08170AB
:102E400082608093BC02662351F06091BC02709155
:102E5000BD028091BE029091BF020E949C154091DC
:102E6000BF026091BE028091BD020E9417170895B3
:102E7000682F81E00E941B17089581E00E94381797
:102E80000895682F9091BC0296958FEF890F09F4F1
:102E900081E00E941B17089581E00E944117089568
:102EA00061E00E941B170895ECEBF2E080818160E5
:102EB000808386950E94501708958091BC0280FF00
:102EC00003C00E944C1608950E945417089560E0B4
:102ED0000E941B17089580917A0281112CC00E94D4
:102EE000300D811104C00E94C30D0E94BA150E94CA
:102EF00097156093BC027093BD028093BE029093BD
:102F0000BF026E7F61F40E94BA150E94971560930C
:102F1000BC027093BD028093BE029093BF020E94D8
:102F200088158091BC0280FF03C086950E946717B8
:102F300081E080937A020895ECEBF2E08081816079
:102F4000808386950E94671708958091BC0280FF58
:102F500003C00E945A1608950E949C170895FA0112
:102F6000811101C0FB01099508951F93CF93DF9351
:102F7000EC01FB011281111110C00E94420C8272FF
:102F8000FE01E052F847E531F10508F043C0E35295
:102F9000F64D0C942D290E945D17812FDF91CF9162
:102FA0001F9108954CE457E16DE377E10E94AF175C
:102FB000F4CF4DE357E16CE477E1F8CF4FEC56E105
:102FC00060EC76E1F3CF40EC56E16FEC76E1EECFCA
:102FD00041EF56E160EE76E1E9CF40EE56E161EF78
:102FE00076E1E4CF43E157E162E077E1DFCF42E011
:102FF00057E163E177E1DACF42E056E16AEE75E14D
:10300000D5CF4AEE55E162E076E1D0CF81E00E9473
:103010005017C3CF11E0C1CF219A45B14D7F55B1B3
:103020005260EFB7F8949B01220F331F260F371F12
:10303000280F391F2817390741F4EFBF8FE594E0B7
:103040000197F1F700C000000895DC016D91CD01FA
:1030500078E055B9000000C067FF45B9660F000071
:1030600000C000C000C045B900C07A9591F7E2CF1A
:1030700082E290E00E948729833289F483E290E023
:103080000E948729883059F484E290E00E948729C1
:1030900091E0873109F090E0892F8170089580E0F8
:1030A000FCCFCF93C82F6FEF811163E282E290E0F3
:1030B0000E949B296FEFC11168E083E290E00E94BB
:1030C0009B296FEFC11167E184E290E00E949B2988
:1030D000CF910895089585E290E00E948729682F96
:1030E00070E090E080E008950895CF93C62F0E948D
:1030F00074186C2F85E290E00E949B29CF9108956F
:1031000080E00E94511860E070E0CB010E947518C9
:103110000E940A1D0E94D71D81E00E945118089547
:103120000E946A180E946B180E9474180E94381836
:10313000811102C00E94801808950E94A517089569
:103140009C01FB018281882351F0A9015757403827
:10315000510530F4822F0E94E71D80E0089581E040
:1031600008952FEFFC012083089580E00895CF9308
:10317000DF93EC0188818230E9F028F4813071F02E
:10318000DF91CF9108958330F9F08430C9F70E9420
:103190001C1689830E941F168A83F2CF0E94221672
:1031A0002FEF829FC00111246FEF70E00E9405296C
:1031B0006983E6CF0E94D215882321F00E94CA15A8
:1031C0008983DECF80E0FCCF0E940616F9CFCF9333
:1031D000DF93EC018881823021F128F4813069F09D
:1031E000DF91CF910895833041F18430C9F70E9477
:1031F0002216482F6A81898111C089812FEF829F11
:10320000C00111246FEF70E00E940529D62F0E94A3
:103210001F16C82F0E941C164D2F6C2F0E941717C7
:10322000DFCF8981811103C00E945A16D9CF0E9435
:103230009C1789810E946717D3CF89810E94181635
:10324000CFCFFC019C012E5F3F4F9081983041F021
:10325000993051F0973059F4C9010E94E718089548
:10326000C9010E94B71808950E94AF1508958FEF05
:1032700080830895FC012181223019F40E942119D4
:1032800008950E94B1180895B0E0A0E0EAE4F9E1E1
:103290000C944429EC01E62E0E94B518811110C04F
:1032A000E881E150E331B8F4F0E0EE50F64D0C94D3
:1032B0002D2919828CE08A836E2DCE010E9439223D
:1032C000CDB7DEB7E8E00C94602989818230C1F087
:1032D00028F4813061F08FEF8883EECF833099F04E
:1032E0008430C9F71A821B821C821D82E5CF0E949E
:1032F00085210E9433296A837B838C839D83DCCF65
:103300000E946B18F6CF8A81082F10E06E0193E0BF
:10331000C90ED11C9CE1F92EF80E0430110560F69F
:10332000802F0E940E11F60181936F010F5F1F4FD6
:10333000F012F3CFC1CF8981823031F0853059F658
:103340008A810E949D18B8CF6A817B818C819D8182
:103350000E9433290E947518AFCF4B816A81898101
:103360000E94CC1C9827892798279D838C83A4CF03
:103370002C813D813227232732274B816A81898125
:103380000E94EE1C99CF0E940A1D96CF6E2DCE0191
:103390000E943A1991CF0E94881D89838DCF0E9487
:1033A0008A1D9827892798279A83898385CF6B81DF
:1033B00070E089819A81AE014C5F5F4F9827892721
:1033C00098270E948D1D78CF6B8170E089819A814A
:1033D000AE014C5F5F4F9827892798270E94B21D46
:1033E0006BCF0E94D71D68CF0E94BA1CD6CF6B81CD
:1033F00070E089819A81AE014C5F5F4F98278927E1
:1034000098270E94361D58CF6B8170E089819A8180
:10341000AE014C5F5F4F9827892798270E94591D5E
:103420004BCFCF93DF93EC01FB018281882309F41A
:10343000D2C09E0130572332310508F0B2C00E943D
:10344000460D9093B3028093B202FE01E150F04723
:10345000E232F10520F4EB5FF54D0C942D298091BB
:10346000B20281608093B20293C08091B3028860FF
:103470008093B3028DC08091B2028260F3CF8091BD
:10348000B2028460EFCF8091B2028860EBCF80916E
:10349000B3028160EDCF8091B3028260E9CF809169
:1034A000B2028061DFCF8091B2028062DBCF809177
:1034B000B2028064D7CF0E94A3078091B2028068D5
:1034C000D1CF8091B2028C60CDCF8091B302836066
:1034D000CFCF8091B2028E7FC5CF8091B302877F1C
:1034E000C7CF8091B2028D7FBDCF8091B2028B7F1A
:1034F000B9CF8091B202877FB5CF8091B3028E7F22
:10350000B7CF8091B3028D7FB3CF8091B2028F7E0F
:10351000A9CF8091B2028F7DA5CF8091B2028F7B1F
:10352000A1CF0E94A3078091B2028F779BCF809199
:10353000B202837F97CF8091B3028C7F99CF809125
:10354000B20282FB992790F921E0922790FB82F941
:1035500090FB83F987CF8091B302982F909591705B
:103560008E7F892B90FB81F983CF9091B202892FB6
:103570008F7B96FF806476CF0E94A3079091B20262
:10358000892F97FB87F980586DCF81E00E94C60D87
:103590008091B2029091B3020E944B0D0E94A3074A
:1035A00080E0DF91CF91089580E0F0CF9091B2025A
:1035B000892F8F7E94FF806155CF9091B202892F21
:1035C0008E7F90FF81604ECF9091B302892F877FCD
:1035D00093FF88604DCF81E0E4CFB0E0A0E0E3EF5F
:1035E000FAE10C944529E82FF0E0E45BFD4FD4901C
:1035F000282F26952695269530E0F901E451FD4FB8
:103600000491877010E0082E02C0159507950A9462
:10361000E2F701701127F901E452FD4FE490F12C1B
:10362000082E02C0F594E7940A94E2F791E0E922AB
:10363000FF24F901E453FD4FC491D0E002C0D595B9
:10364000C7958A95E2F7C170DD270115110519F0BC
:1036500081EE0E949E04E114F10419F086EE0E94AE
:103660009E048D2D0E943605E114F10419F086EEBA
:103670000E94EB040115110519F081EE0E94EB0484
:10368000CD2B19F08CE20E943605CDB7DEB7E7E00E
:103690000C946129EF92FF920F931F93CF93DF93C6
:1036A000EC01162F0AE08881882309F454C0813088
:1036B00009F04EC08981813099F47E0122E0E20E4A
:1036C000F11C8A810E943605E7012196812F8150E5
:1036D00050F3EFE9FFE03197F1F700C00000F7CFBA
:1036E000823041F47E0182E0E80EF11C8A810E9462
:1036F0009E04EACF833041F47E01E2E0EE0EF11C3D
:103700008A810E94EB04E0CF843011F02196DDCF56
:103710002A81229690E080E0AE014F5F5F4F2053F8
:10372000330B2A30310548F0019778F2EFE9FFE0DA
:103730003197F1F700C00000F7CF089FB001099F53
:10374000700D1124C901860F971F2981EA01E4CF6A
:103750000E94ED1ABACFCDB7DEB7E6E00C9462292D
:103760008FE891E00197F1F700C0000008950E94F2
:10377000E9020895FF920F931F93CF93DF9382E0A6
:1037800080937F0204EB11E0C2EBD1E0AE01D801DF
:1037900021E030E08D91E82FE295EF70F0E0F1A0AC
:1037A0008F70B90101C0660F8A95EAF7962F909540
:1037B0009F2191A382A1862B82A3FA018191AF015F
:1037C000E82FE295EF70F0E0F1A08F70B90101C031
:1037D000660F8A95EAF7962F90959F2191A382A173
:1037E000862B82A3F1E0A63BBF07A1F60E94B01B87
:1037F00060917F0242E852E0FA018E2F841B861707
:1038000028F0CDB7DEB7E5E00C946329D8012D91FF
:103810008D01A22FA295AF70B0E090968C9190E0B0
:103820002F7002C0959587952A95E2F7817099913E
:10383000A92FA295AF70B0E090962C9130E09F70C8
:1038400002C0359527959A95E2F790E020FD92E029
:10385000892B8193D2CFB0E0A0E0E1E3FCE10C94AE
:10386000442910E000E080917F02181730F0802F8B
:10387000CDB7DEB7E8E00C946029C12FD0E0FE019F
:10388000EC54FE4F8081E82FE295EF70F0E0E0A16C
:10389000F0E08F7002C0F595E7958A95E2F7E17048
:1038A000DE01AE54BE4F2C91A22FA295AF70B0E0B6
:1038B00090968C9190E02F7002C0959587952A95EF
:1038C000E2F780FD55C080E08E2BDE01AE57BD4F84
:1038D000EC919E2F9370981709F448C0EE0FEE0FED
:1038E000E82BEC93DE01A055BE4FCC90EF70F0E0DA
:1038F000E056FE4FCE0180589D4F7C018081F7013C
:103900009081890F8083D12C082E000C990B20E028
:103910008C159D055CF0FE01E358FD4F80818F5FA3
:10392000808360E0812F0E94B71B21E0F701808136
:10393000082E000C990B442755274C195D09481790
:10394000590754F0C358DD4F88818150888361E066
:10395000812F0E94B71B21E0F7018081082E000C07
:10396000990BB6010E9419298083022B1F5F7BCF20
:1039700082E0AACF84E0089550E0440F551F9AE0FA
:10398000699F400D511D112498E2899F400D511DE2
:103990001124CA01869608950F931F93CF93DF9346
:1039A0008430C8F46430B8F44530A8F40E94BC1CDC
:1039B0008C010E948729C82FD0E0DC2FCC27C801BA
:1039C00001960E9487299E01282BC901DF91CF9182
:1039D0001F910F91089590E080E0F8CF0F931F930F
:1039E000CF93DF93122F032F843078F4643068F480
:1039F000453058F40E94BC1CEC01602F0E949B29AA
:103A0000612FCE0101960E949B29DF91CF911F91DA
:103A10000F9108950F931F93CF93DF93D0E0C0E0F1
:103A200010E019C00E94110321E030E08C171D0640
:103A300039F034F0402F612F8C2F0E9413039C012A
:103A4000402F612F8C2F0E94EE1C0F5F053051F725
:103A50001F5F143011F000E0E5CF2196C430D1058E
:103A6000F9F6DF91CF911F910F910895EF92FF9298
:103A70000F931F93CF93DF93EC018A017C01E60E35
:103A8000F71ECE018696CE15DF0529F4CDB7DEB739
:103A9000E6E00C946229C03AD10540F40E948729DF
:103AA000F80180830F5F1F4F2196EBCFF801108242
:103AB000F9CFB0E0A0E0EFE5FDE10C9444297C01F2
:103AC0006A018C01060F171FEC01CE018696C01704
:103AD000D10729F4CDB7DEB7E8E00C946029C03AED
:103AE000D10540F4FE01EE19FF09EC0DFD1D6081CA
:103AF0000E949B292196E9CF843038F4643028F461
:103B0000453018F40E94CC1C089590E080E00895A0
:103B100080E108958AE393E00895EF92FF920F9376
:103B20001F93CF93DF93EC018A017C01E60EF71E11
:103B3000CE018A539F4FCE15DF0529F4CDB7DEB7EE
:103B4000E6E00C946229CA3323E0D20740F40E94D5
:103B50008729F80180830F5F1F4F2196E9CFF80175
:103B60001082F9CFB0E0A0E0E8EBFDE10C9444292D
:103B70007C016A018C01060F171FEC01CE018A53EC
:103B80009F4FC017D10729F4CDB7DEB7E8E00C94FA
:103B90006029CA3323E0D20740F4FE01EE19FF0981
:103BA000EC0DFD1D60810E949B292196E7CFCF93EC
:103BB000DF93C6ECD0E060E0CE010E949B29219605
:103BC000C11584E0D807B9F7DF91CF910895A8E037
:103BD000B0E0EDEEFDE10C944229F82E8FE08F1558
:103BE00008F46EC08FEF93E00E948729811168C0AE
:103BF00006EC10E0F11035C0FE0131966F0188E04F
:103C000011928A95E9F77801FFEFEF1AFF0AC801D0
:103C10000E94872989831A82882309F451C0813040
:103C2000D1F4580182E0A80EB11CC7010E94872977
:103C30008A83882309F444C09FEF980F9330F0F4EF
:103C4000780193E0E90EF11CC5010E9487298B835E
:103C50008823B1F11C826AE0C6010E944A1B8701D9
:103C6000D2CF011594E0190759F1C8010E948729A4
:103C7000811101C0FA940F5F1F4FBCCF75018430D2
:103C800051F702E010E07501EFEFEE1AFE0AC501F0
:103C90000E948729F601E00FF11F8083882381F0BD
:103CA0008C3741F4E2E0F0E0EC0FFD1FE00FF11F74
:103CB0001082D1CF0F5F1F4F57010730110519F741
:103CC0002896EAE00C945E29CF93DF93EB018631CE
:103CD0009C4711F50E94420C9A81992399F08A7AA7
:103CE00091E009F490E090938402811109C089E287
:103CF0000E941A0C0E94830C80E0DF91CF910895FE
:103D000085E3F6CF80918402811104C089E20E948C
:103D1000220CF0CF85E3FBCF81E0EFCF0F931F9311
:103D2000CF93DF93C42FD22FFC0182818823C9F067
:103D3000409387020E9479219093860280938502A6
:103D400080E28C0F883040F4C77081E001C0880F9A
:103D5000CA95EAF70E943F05DF91CF911F910F911D
:103D6000089510918702141332C0809185029091BA
:103D700086020E949121883C910548F5C0E2CD0F52
:103D80001D17B9F080E2810F883040F4177081E090
:103D900001C0880F1A95EAF70E944605C83048F41A
:103DA00081E09D2F977001C0880F9A95EAF70E94D5
:103DB0003F05802F0E943605C83070F6D77081E02D
:103DC00001C0880FDA95EAF70E944605C5CF80E268
:103DD0008C0F883008F6C77081E001C0880FCA9543
:103DE000EAF7F2CF0F93DB0188519C4787309105AA
:103DF000A0F5FC01E95DF54D0C942D2906E221EEBC
:103E000041EE6AE17CE7CD010E948E1E80E00F91B9
:103E1000089507E225EE45EE6BE17CE7F4CF06E27C
:103E200021EE40EE68E17CE7EECF07E225EE44EEBE
:103E300069E17CE7E8CF06E221EE42EE6CE17CE747
:103E4000E2CF07E225EE46EE6DE17CE7DCCF08E24B
:103E500021E045EE6EE17CE7D6CF12968C91882367
:103E600019F010928702D3CF81E0D1CF1F93CF9367
:103E7000DF9387372CE7920759F0C1E088379C47DA
:103E8000E1F4FB01C281CC2371F10E94791F06C0CD
:103E9000FB01C281CC23B1F00E94761F0E941E0854
:103EA0000E947C1FD82F0E94791FC82F0E94761F66
:103EB0004D2F6C2F0E944609C0E08C2FDF91CF91CF
:103EC0001F9108950E94761F0E942A080E947C1F5D
:103ED000182F0E94791FD82F0E94761F412F6D2F17
:103EE0000E944609EACF0E94791FEECF809111010E
:103EF000089580911001089580910F010895909385
:103F0000C7018093C601089590938D0280938C021F
:103F10000895E0918C02F0918D02309729F0019084
:103F2000F081E02D0995089580E00895E0918C02DC
:103F3000F0918D02309799F020911A01222359F0C7
:103F40002091B20227FF07C0DC012C9111962C931F
:103F5000119726E02C930280F381E02D09950895B6
:103F6000E0918C02F0918D02309739F022E0DC0173
:103F70002C930480F581E02D09950895A3E0B0E02D
:103F8000E4ECFFE10C944A2920918A0230918B02E3
:103F900028173907A1F090938B0280938A02E09151
:103FA0008C02F0918D02309751F023E029839B839E
:103FB0008A830680F781E02DCE010196099523962C
:103FC000E2E00C946629A3E0B0E0E9EEFFE10C9496
:103FD0004A29209188023091890228173907A1F0D7
:103FE0009093890280938802E0918C02F0918D0277
:103FF000309751F024E029839B838A830680F781E0
:10400000E02DCE01019609952396E2E00C946629F5
:10401000FC01329680911A01882321F08091B2022E
:104020009EE187FF96E080E0915008F40895219189
:104030002223D1F38F5FF8CF662301F120911A017B
:104040002223F1F02091B20227FF1AC0462F469595
:10405000469546954E3190F4677021E030E002C0FD
:10406000220F331F6A95E2F7840F911DFC018281B4
:1040700090E02823392381E0232B69F480E0089520
:10408000FC01329608962191261721F0E817F907CE
:10409000D1F7F4CF81E008959C01FC0132969FEFA7
:1040A00080E04191461751F09F3F19F4411101C042
:1040B000982F8F5F8630A9F79F3F09F40895290F45
:1040C000311D97FD3A95F90162830895FC013296FE
:1040D00008962191261303C0DF0111971C92E8175F
:1040E000F907B9F70895E62FE695E695E695EE31DE
:1040F00068F4E80FF92FF11D677021E030E001C08E
:10410000220F6A95EAF78281822B82830895E62F37
:10411000E695E695E695EE3170F4E80FF92FF11D7E
:10412000677021E030E001C0220F6A95EAF7209520
:10413000828128232283089520911A01222339F0B5
:104140002091B20227FF03C00E94732008950E94AD
:104150004C20089520911A01222339F02091B202B7
:1041600027FF03C00E94872008950E9466200895BB
:10417000FC01329680911A01882351F08091B2029D
:1041800087FF06C08EE1DF011D928A95E9F7089549
:1041900086E0F9CF46E050E00E94712921E0892BAA
:1041A00009F420E0822F089508950E94D4200895F4
:1041B000811106C081E080938E020E94D52008956F
:1041C00082E0F9CF83E080938E020E94D52008958B
:1041D0000E94D820089581E080938E020E94D5200D
:1041E00008950E94EB200895089508950E94F520F7
:1041F0000895089508950E94F4200895CF930E9491
:10420000F9200E94C6110E94FA20C0E08C2F0E9463
:104210000E11811105C0CF5FC430C1F7CF91089551
:1042200081E0FCCF85B7806885BF85B7806885BF92
:1042300008951F921FB61F9211248F939F93AF93DF
:10424000BF9380918F02811113C08091DF02909102
:10425000E002A091E102B091E2024196A11DB11DE0
:104260008093DF029093E002A093E102B093E20218
:10427000BF91AF919F918F911F901FBE1F90189576
:104280008091E702843031F10E94FF0310928F0287
:1042900088E190E020E40FB6F894A8958093600040
:1042A0000FBE2093600083B7817F846083BF83B794
:1042B000816083BF7894889583B78E7F83BF0FB664
:1042C000F894A895809160008861809360001092B6
:1042D00060000FBE08950E94A3070E940404089581
:1042E00082E084BD93E095BD9AEF97BD80936E0008
:1042F00008952FB7F8948091DF029091E002A09189
:10430000E102B091E2022FBF08952FB7F8946091B7
:10431000DF027091E0028091E1029091E2022FBFF2
:1043200008959C014FB7F8948091DF029091E002CC
:10433000A091E102B091E2024FBF821B930B08955E
:1043400078941F921FB61F9211248F939F93AF935F
:10435000BF938091DF029091E002A091E102B091C1
:10436000E2020196A11DB11D8093DF029093E0024D
:10437000A093E102B093E202BF91AF919F918F9120
:104380001F901FBE1F90189587E797E7909301082D
:104390008093000888E19AE00FB6F894A89580937E
:1043A00060000FBE90936000FFCF88E19AE00FB6E7
:1043B000F894A895809360000FBE90936000FFCFA3
:1043C0008091B00208959B01BA019091E702943068
:1043D000E9F48F708093E9009FEF8091E80091509D
:1043E00085FD06C085ED8A95F1F700009111F5CFA6
:1043F0008091E80085FF0AC050E040E0C9010E94BA
:104400002F248091E8008E778093E800089543E0A0
:1044100050E0BC0184E00E94E321089546E050E0B2
:10442000BC0184E00E94E3210895CF93DF93EC0167
:1044300080911A01811111C048E050E0BE0181E075
:104440000E94E32180E2FE01A0E9B2E001900D921A
:104450008A95E1F7DF91CF9108958091B20287FFAD
:1044600005C040E284E050E0BE01EACF48E081E0D0
:10447000FACF603231F440E250E0BC0182E00E94A9
:10448000E32108958091E602811109C00E940E2661
:104490000E946B268091E20084608093E200089580
:1044A0001092E60208950E94EB2008956091E302C5
:1044B00081E0611101C080E00E94E22008959091A6
:1044C000E70281E0943009F080E06091E3020E940D
:1044D000E820089542E061EC81E00E948A2542E2F2
:1044E00061EC84E00E948A2542E261EC82E00E9455
:1044F0008A2542E260EC83E00E948A259091E702DF
:1045000081E0943009F080E06091E3020E94D820BD
:1045100008958091E902833009F463C030F481305A
:10452000E1F1823009F4A0C008958A3009F48CC00A
:104530008B3009F471C0893009F052C08091E802D3
:10454000813209F04DC08091EC029091ED0200970C
:1045500019F0029709F044C08091E800877F8093AA
:10456000E8008091E80082FF37C09091F3008091CD
:10457000F200029731F48091F100813011F0863021
:1045800021F48091F1008093B0028091E8008B7754
:104590008093E8000E94BE2523C08091E802813A02
:1045A000F9F48091E800877F8093E8008091EC0225
:1045B0009091ED02892B61F460E280E992E070E075
:1045C0000E94CD248091E8008B778093E8000895C5
:1045D00060E090E080E0F3CF8091E7028111C1CFED
:1045E00008958091E802813AD9F78091EC02909188
:1045F000ED02892BA9F78091E800877F8093E8007E
:104600008091E80080FFFCCF80911A018093F10037
:104610008091E8008E77BCCF8091E802813201F76B
:104620008091EC029091ED02892BD1F68091E80007
:10463000877F8093E8000E94BE258091EA028093E4
:104640001A010E94A30708958091E802813241F681
:104650008091E800877F8093E8000E94BE258091CA
:10466000EB028093B10208958091E802813A09F04B
:10467000B7CF8091E800877F8093E8008091E800C1
:1046800080FFFCCF8091B102C1CF84B7877F84BF08
:104690000FB6F894A89580916000886180936000BF
:1046A000109260000FBE80E890E00FB6F8948093FF
:1046B0006100909361000FBE0E94F12008950E9456
:1046C0000E260E946B26E2EEF0E0808184608083FB
:1046D00078940E94EA28089582E191E00E94841F64
:1046E00008958091E702853031F48091E7028530AA
:1046F00019F00E946B2108950E9440218091E502EB
:10470000882399F30E94FE20882379F30E941924BC
:104710000E94A307EACFA0E2B0E0E1E9F3E20C9443
:104720004A298091E702843009F583E08093E9000B
:104730008091E80082FF1AC08091E80090E085FF38
:1047400009C050E040E060E270E0CE0101960E94B6
:104750007E2491E08091E8008B778093E800992394
:1047600029F060E2CE0101960E944419A096E2E091
:104770000C9466299A014091EE025091EF020E943A
:10478000C2230895492F55274330510521F168F47C
:104790004130510509F443C04230510509F444C089
:1047A00090E080E050E040E026C04132510551F1F8
:1047B00042325105A9F76330710590F7FB01EE0F06
:1047C000FF1FE754FE4F408151816A547E4FFB0129
:1047D000808190E010C099278130910581F0009789
:1047E00029F00297E9F6ECEFF2E002C0E6E3F3E02D
:1047F000849190E0AF01F901518340830895ECE08A
:10480000F3E0F6CF6330710558F6660F771FFB01B2
:10481000E154FE4F4081518189E090E0ECCF82E18C
:1048200090E045E953E0E7CF8BE590E04AE353E0C1
:10483000E2CF80E189BD82E189BD09B400FEFDCFF0
:104840008091D8008F7D8093D8008091E0008260B5
:104850008093E0008091E00081FDFCCF0895AF924D
:10486000BF92CF92DF92FF920F931F93CF93DF936C
:104870006C01EB018A010E94DD25F82E811123C015
:104880000115110539F0F80180819181C81BD90B00
:10489000C80ED91EB12CA12C2097A9F08091E80058
:1048A00085FD22C08091E8008E778093E800011595
:1048B0001105A1F0F80180819181A80EB91EB18285
:1048C000A08285E0F82E8F2DDF91CF911F910F915F
:1048D000FF90DF90CF90BF90AF9008950E94DD25AC
:1048E0008823D1F2F82EEFCFF60181916F018093EA
:1048F000F1002197FFEFAF1ABF0ACECFAF92BF9260
:10490000CF92DF92FF920F931F93CF93DF936C01AF
:10491000EB018A010E94DD25F82E811123C00115CB
:10492000110539F0F80180819181C81BD90BC80E9F
:10493000D91EB12CA12C2097A9F08091E80085FD0B
:1049400022C08091E8008B778093E8000115110563
:10495000A1F0F80180819181A80EB91EB182A082D8
:1049600085E0F82E8F2DDF91CF911F910F91FF9051
:10497000DF90CF90BF90AF9008950E94DD258823EF
:10498000D1F2F82EEFCF8091F100F60181936F0103
:104990002197FFEFAF1ABF0ACECFFC018091EE0244
:1049A0009091EF0286179707A0F06115710529F421
:1049B0009091E8009E779093E80090E06115710572
:1049C00051F4911108C08091E80082FF34C080E06A
:1049D0000895BC01F2CF8091E7028823C1F18530B0
:1049E000C1F18091E80083FD30C08091E80082FD34
:1049F000EACF8091E80080FFE1CF8091F300209121
:104A0000F200382F6115710519F02830310558F082
:104A100091E02830310509F090E02091E8002E77F0
:104A20002093E800CBCF81918093F1006150710910
:104A30002F5F3F4FE7CF8091E702882341F0853019
:104A400041F08091E80083FFBECF81E0089582E0CD
:104A5000089583E00895FC018091EE029091EF02A9
:104A600086179707A0F06115710529F48091E80079
:104A70008E778093E80090E06115710551F49111F3
:104A800008C08091E80082FF35C080E00895BC0135
:104A9000F2CF8091E7028823C9F18530C9F1809176
:104AA000E80083FD31C08091E80082FDEACF80916B
:104AB000E80080FFE1CF8091F3002091F200382FD1
:104AC0006115710519F02830310558F091E0283052
:104AD000310509F090E08091E8008E778093E8003E
:104AE000CBCF84918093F1003196615071092F5F93
:104AF0003F4FE6CF8091E702882341F0853041F0B7
:104B00008091E80083FFBDCF81E0089582E00895A1
:104B100083E00895982F973028F08F708093E900F4
:104B200081E008959093E900242F762F50E09817A4
:104B300031F07091EC002091ED005091F00021FDDA
:104B400002C09F5FE8CF3091EB003E7F3093EB00D7
:104B50003091ED003D7F3093ED003091EB003160FE
:104B60003093EB007093EC002093ED005093F00035
:104B70002091EE0027FDE5CF80E008958091E802C6
:104B800087FF13C08091E80082FF06C08091E80093
:104B90008B778093E80004C08091E7028111F2CF07
:104BA00008958091E7028823D9F38091E80080FF7F
:104BB000F8CF8091E8008E77ECCF2091E40030911F
:104BC000E50095E6A9012091EC00822F817020FF7D
:104BD00006C08091E80080FF06C080E00895209123
:104BE000E80022FD1AC08091E702882389F0853011
:104BF00089F08091EB0085FD0FC02091E400309199
:104C0000E50042175307F9F29150E1F684E0089568
:104C100082E0089583E0089581E008950E947D2652
:104C20000E948526E0EEF0E0808181608083E8EDDF
:104C3000F0E080818F77808319BCA7EDB0E08C9184
:104C40008E7F8C9380818F7E80831092E602089500
:104C50000F931F93CF93DF930E947D260E9485269A
:104C6000C8EDD0E088818F778883888180688883C9
:104C700088818F7D888319BC1092E7021092E3022D
:104C80001092E5021092E40200EE10E0F80180813B
:104C90008B7F808388818160888342E060E080E050
:104CA0000E948A25E1EEF0E080818E7F8083E2EE33
:104CB000F0E0808181608083808188608083F8015A
:104CC00080818E7F8083888180618883DF91CF910E
:104CD0001F910F910895E8EDF0E080818F7E808331
:104CE000E7EDF0E080818160808384E082BF81E035
:104CF0008093E6020E9428260895E8EDF0E0808186
:104D00008E7F80831092E20008951092DA00109254
:104D1000E10008951F920F920FB60F9211242F9366
:104D20003F934F935F936F937F938F939F93AF9333
:104D3000BF93EF93FF938091E10082FF0BC08091BE
:104D4000E20082FF07C08091E1008B7F8093E10049
:104D50000E94E9288091DA0080FF19C08091D80074
:104D600080FF15C08091DA008E7F8093DA008091F9
:104D7000D90080FF96C080E189BD82E189BD09B478
:104D800000FEFDCF81E08093E7020E9442228091E5
:104D9000E10080FF19C08091E20080FF15C0809182
:104DA000E2008E7F8093E2008091E2008061809338
:104DB000E2008091D80080628093D80019BC85E021
:104DC0008093E7020E9456228091E10084FF2BC06D
:104DD0008091E20084FF27C080E189BD82E189BD26
:104DE00089B5982F917080FFFBCF8091D8008F7D7F
:104DF0008093D8008091E1008F7E8093E1008091C4
:104E0000E2008F7E8093E2008091E20081608093D7
:104E1000E2008091E302882309F449C084E0809392
:104E2000E7020E945F228091E10083FF29C0809108
:104E3000E20083FF25C08091E100877F8093E1003D
:104E400082E08093E7021092E3028091E1008E7F7E
:104E50008093E1008091E2008E7F8093E200809158
:104E6000E20080618093E20042E060E080E00E9426
:104E70008A258091F00088608093F0000E94532280
:104E8000FF91EF91BF91AF919F918F917F916F9122
:104E90005F914F913F912F910F900FBE0F901F90F8
:104EA000189519BC1092E7020E94502270CF809191
:104EB000E30087FD93E09093E702B3CF1F920F9238
:104EC0000FB60F9211242F933F934F935F936F93DD
:104ED0007F938F939F93AF93BF93CF93DF93EF9382
:104EE000FF93D091E900DF708091EC00C82FC17072
:104EF00080FDC0E81092E9008091F000877F8093E8
:104F0000F00078940E94A2271092E9008091F000AE
:104F100088608093F000CD2BCF70C093E900FF91A3
:104F2000EF91DF91CF91BF91AF919F918F917F9141
:104F30006F915F914F913F912F910F900FBE0F9006
:104F40001F901895AAE2B0E0E8EAF7E20C9449292C
:104F500088EE92E02091F100FC012193CF01F2E074
:104F6000803F9F07B9F70E9489228091E80083FF64
:104F70001EC18091E8029091E9029A3008F017C1B1
:104F8000E92FF0E0E25DF54D0C942D29803899F081
:104F9000823809F00CC18091EC028F70873008F0E4
:104FA00006C18093E9008091EB0085FB882780F99A
:104FB0001092E90006C08091E4029091E5029111FF
:104FC00082609091E800977F9093E8008093F100D1
:104FD0001092F1008091E8008E77E5C0882309F4F3
:104FE000D3C0823009F0E3C08091EA028111D6C0BB
:104FF0008091EC028F702FEF280F263008F0D7C079
:105000008093E9002091EB0020FFC8C0933031F479
:105010008091EB0080628093EB00C0C09091EB0028
:1050200090619093EB0021E030E001C0220F8A955F
:10503000EAF72093EA001092EA008091EB00886082
:10504000EACF8111B4C01091EA021F778091E3008A
:105050008078812B8093E3008091E800877F8093A4
:10506000E8000E94BE258091E80080FFFCCF80917F
:10507000E30080688093E30082E0111183E0809375
:10508000E70295C08058823008F091C08091EA0212
:105090009091EB028C3D23E09207A1F583E08A8397
:1050A0008AE289834FB7F894DE01139620E03EE050
:1050B00051E2E32FF0E050935700E49120FF03C04A
:1050C000E295EF703F5FEF708E2F90E0EA30C0F016
:1050D000C7968D939D932F5F243159F74FBF8091D1
:1050E000E800877F8093E8006AE270E0CE010196D5
:1050F0000E94CD248091E8008B778093E80057C010
:10510000C096E7CF6091EC027091ED02AE014F5F67
:105110005F4F0E94BA23BC01892B09F448C09091CB
:10512000E800977F9093E80089819A810E942B255F
:10513000E1CF8038E1F58091E800877F8093E80037
:105140008091E3028093F10045CF811130C09091AE
:10515000EA02923060F58091E800877F8093E80052
:105160009093E3020E94BE258091E302882311F010
:1051700084E005C08091E30087FDFACF81E0809351
:10518000E7020E946A2213C08091EA02813079F41A
:1051900081E0933009F080E08093E5021092E9000D
:1051A0008091E800877F8093E8000E94BE2580916F
:1051B000E80083FF0AC08091E800877F8093E800C1
:1051C0008091EB0080628093EB00AA96E3E00C9460
:1051D00065290895CF938091E7028823A1F0C091BB
:1051E000E900CF709091EC00892F817090FD80E8EC
:1051F000C82B1092E9008091E80083FD0E94A2274D
:10520000CF70C093E900CF910895AA1BBB1B51E159
:1052100007C0AA1FBB1FA617B70710F0A61BB70B26
:10522000881F991F5A95A9F780959095BC01CD01CB
:10523000089597FB072E16F4009407D077FD09D048
:105240000E94052907FC05D03EF4909581959F4F5B
:105250000895709561957F4F0895EE0FFF1F05909B
:10526000F491E02D099469279627692778278727E5
:10527000782708952F923F924F925F926F927F927C
:105280008F929F92AF92BF92CF92DF92EF92FF9256
:105290000F931F93CF93DF93CDB7DEB7CA1BDB0B02
:1052A0000FB6F894DEBF0FBECDBF09942A883988A7
:1052B00048885F846E847D848C849B84AA84B984AE
:1052C000C884DF80EE80FD800C811B81AA81B981BA
:1052D000CE0FD11D0FB6F894DEBF0FBECDBFED01CE
:1052E0000895FB01DC0104C08D910190801921F427
:1052F00041505040C8F7881B990B0895FB01DC0111
:1053000002C001900D9241505040D8F70895F9998C
:10531000FECF92BD81BDF89A992780B50895A6E188
:10532000B0E044E050E00C94C129A8E1B0E042E0D4
:1053300050E00C94C129262FF999FECF92BD81BD72
:10534000F89A019700B4021639F01FBA20BD0FB6C3
:10535000F894FA9AF99A0FBE08950396272F0E949F
:105360009C290E949B29252F0E949C29242F0C9464
:105370009C290196272F0E949C290C949B29DC01D3
:10538000CB01FC01F999FECF06C0F2BDE1BDF89A50
:10539000319600B40D9241505040B8F70895F894FA
:1053A000FFCF8C058C05DC05DC0550066C06BB05C3
:1053B000BB057106D806E706E706CB17D217D91743
:1053C000DE17E317E817ED17F217F717FC170118A8
:1053D0000618CD17CD17CD17CD17CD17CD17CD1773
:1053E000CD17CD17591965199B19AD19B819C319DE
:1053F000C619C619C6196B196B19CB19CF19D7194C
:10540000E419F119F419F719041A691ADD1A711A55
:105410003B1A3F1A751A431A791A851A4F1AD61A67
:10542000531A891A571A8D1AB51A5B1A911ABC1A8F
:10543000611A971A9F1A471A7D1A4B1A811A651A10
:105440009B1AAB1AC51AD41A351A6D1AE41A0F1F13
:10545000151FFE1E091F1B1F211F271FC627EE2712
:10546000D728EE27D72821284228D7289928A528E9
:105470003502280850011E0A1401000A000A0A0316
:105480000201E02115220E22072201040104030477
:10549000000402E200E900EA00B500B600B700CD62
:1054A000008301CC008A019201940121022302248D
:1054B000022502260227022A02B300B4006F007000
:1054C000009F01CB019F02A002818283E200E900DC
:1054D000EA00B500B600B700CD008301CC008A0118
:1054E00092019401210223022402250226022702AE
:1054F0002A02B300B4006F0070009F01CB019F022D
:10550000A0028182833534C697FF91669490000192
:1055100000FF0100010000FFFF0000010001FF008B
:105520000404F5F7F4F64022B67F04A703C9034C40
:0655300003650385030082
:00000001FF
